{
  "_format": "hh-sol-artifact-1",
  "contractName": "CourseRegistration",
  "sourceName": "contracts/CourseRegistration.sol",
  "abi": [
    {
      "inputs": [
        {
          "internalType": "address",
          "name": "_identityNFTAddress",
          "type": "address"
        },
        {
          "internalType": "address",
          "name": "_feePaymentAddress",
          "type": "address"
        }
      ],
      "stateMutability": "nonpayable",
      "type": "constructor"
    },
    {
      "inputs": [
        {
          "internalType": "address",
          "name": "owner",
          "type": "address"
        }
      ],
      "name": "OwnableInvalidOwner",
      "type": "error"
    },
    {
      "inputs": [
        {
          "internalType": "address",
          "name": "account",
          "type": "address"
        }
      ],
      "name": "OwnableUnauthorizedAccount",
      "type": "error"
    },
    {
      "anonymous": false,
      "inputs": [
        {
          "indexed": false,
          "internalType": "uint256",
          "name": "courseId",
          "type": "uint256"
        },
        {
          "indexed": false,
          "internalType": "string",
          "name": "courseName",
          "type": "string"
        }
      ],
      "name": "CourseAdded",
      "type": "event"
    },
    {
      "anonymous": false,
      "inputs": [
        {
          "indexed": true,
          "internalType": "address",
          "name": "previousOwner",
          "type": "address"
        },
        {
          "indexed": true,
          "internalType": "address",
          "name": "newOwner",
          "type": "address"
        }
      ],
      "name": "OwnershipTransferred",
      "type": "event"
    },
    {
      "anonymous": false,
      "inputs": [
        {
          "indexed": false,
          "internalType": "uint256",
          "name": "courseId",
          "type": "uint256"
        },
        {
          "indexed": false,
          "internalType": "address",
          "name": "student",
          "type": "address"
        }
      ],
      "name": "StudentRegistered",
      "type": "event"
    },
    {
      "inputs": [
        {
          "internalType": "string",
          "name": "courseName",
          "type": "string"
        }
      ],
      "name": "addCourse",
      "outputs": [],
      "stateMutability": "nonpayable",
      "type": "function"
    },
    {
      "inputs": [
        {
          "internalType": "uint256",
          "name": "",
          "type": "uint256"
        },
        {
          "internalType": "uint256",
          "name": "",
          "type": "uint256"
        }
      ],
      "name": "courseRegistrants",
      "outputs": [
        {
          "internalType": "address",
          "name": "",
          "type": "address"
        }
      ],
      "stateMutability": "view",
      "type": "function"
    },
    {
      "inputs": [
        {
          "internalType": "uint256",
          "name": "",
          "type": "uint256"
        }
      ],
      "name": "courses",
      "outputs": [
        {
          "internalType": "uint256",
          "name": "courseId",
          "type": "uint256"
        },
        {
          "internalType": "string",
          "name": "courseName",
          "type": "string"
        },
        {
          "internalType": "bool",
          "name": "isActive",
          "type": "bool"
        }
      ],
      "stateMutability": "view",
      "type": "function"
    },
    {
      "inputs": [],
      "name": "currentCourseId",
      "outputs": [
        {
          "internalType": "uint256",
          "name": "",
          "type": "uint256"
        }
      ],
      "stateMutability": "view",
      "type": "function"
    },
    {
      "inputs": [],
      "name": "feePayment",
      "outputs": [
        {
          "internalType": "contract IFeePayment",
          "name": "",
          "type": "address"
        }
      ],
      "stateMutability": "view",
      "type": "function"
    },
    {
      "inputs": [],
      "name": "identityNFT",
      "outputs": [
        {
          "internalType": "contract IIdentityNFT",
          "name": "",
          "type": "address"
        }
      ],
      "stateMutability": "view",
      "type": "function"
    },
    {
      "inputs": [
        {
          "internalType": "uint256",
          "name": "courseId",
          "type": "uint256"
        },
        {
          "internalType": "address",
          "name": "user",
          "type": "address"
        }
      ],
      "name": "isRegistered",
      "outputs": [
        {
          "internalType": "bool",
          "name": "",
          "type": "bool"
        }
      ],
      "stateMutability": "view",
      "type": "function"
    },
    {
      "inputs": [],
      "name": "owner",
      "outputs": [
        {
          "internalType": "address",
          "name": "",
          "type": "address"
        }
      ],
      "stateMutability": "view",
      "type": "function"
    },
    {
      "inputs": [
        {
          "internalType": "uint256",
          "name": "courseId",
          "type": "uint256"
        }
      ],
      "name": "registerCourse",
      "outputs": [],
      "stateMutability": "nonpayable",
      "type": "function"
    },
    {
      "inputs": [],
      "name": "renounceOwnership",
      "outputs": [],
      "stateMutability": "nonpayable",
      "type": "function"
    },
    {
      "inputs": [
        {
          "internalType": "address",
          "name": "newOwner",
          "type": "address"
        }
      ],
      "name": "transferOwnership",
      "outputs": [],
      "stateMutability": "nonpayable",
      "type": "function"
    }
  ],
  "bytecode": "0x608060405234801561001057600080fd5b5060405161199a38038061199a83398181016040528101906100329190610265565b33600073ffffffffffffffffffffffffffffffffffffffff168173ffffffffffffffffffffffffffffffffffffffff16036100a55760006040517f1e4fbdf700000000000000000000000000000000000000000000000000000000815260040161009c91906102b4565b60405180910390fd5b6100b48161013e60201b60201c565b5081600160006101000a81548173ffffffffffffffffffffffffffffffffffffffff021916908373ffffffffffffffffffffffffffffffffffffffff16021790555080600260006101000a81548173ffffffffffffffffffffffffffffffffffffffff021916908373ffffffffffffffffffffffffffffffffffffffff16021790555050506102cf565b60008060009054906101000a900473ffffffffffffffffffffffffffffffffffffffff169050816000806101000a81548173ffffffffffffffffffffffffffffffffffffffff021916908373ffffffffffffffffffffffffffffffffffffffff1602179055508173ffffffffffffffffffffffffffffffffffffffff168173ffffffffffffffffffffffffffffffffffffffff167f8be0079c531659141344cd1fd0a4f28419497f9722a3daafe3b4186f6b6457e060405160405180910390a35050565b600080fd5b600073ffffffffffffffffffffffffffffffffffffffff82169050919050565b600061023282610207565b9050919050565b61024281610227565b811461024d57600080fd5b50565b60008151905061025f81610239565b92915050565b6000806040838503121561027c5761027b610202565b5b600061028a85828601610250565b925050602061029b85828601610250565b9150509250929050565b6102ae81610227565b82525050565b60006020820190506102c960008301846102a5565b92915050565b6116bc806102de6000396000f3fe608060405234801561001057600080fd5b50600436106100a95760003560e01c8063715018a611610071578063715018a6146101525780638da5cb5b1461015c57806396f979d21461017a578063b81f6e18146101ac578063ea06abce146101dc578063f2fde38b146101fa576100a9565b80632e554076146100ae5780632f77f003146100ca57806333c7c026146100e857806347ffc1ca14610106578063701b3f9b14610122575b600080fd5b6100c860048036038101906100c39190610c8e565b610216565b005b6100d26102ec565b6040516100df9190610cf0565b60405180910390f35b6100f06102f2565b6040516100fd9190610d8a565b60405180910390f35b610120600480360381019061011b9190610dd1565b610318565b005b61013c60048036038101906101379190610dfe565b6106d0565b6040516101499190610e5f565b60405180910390f35b61015a61071e565b005b610164610732565b6040516101719190610e5f565b60405180910390f35b610194600480360381019061018f9190610dd1565b61075b565b6040516101a393929190610f14565b60405180910390f35b6101c660048036038101906101c19190610f7e565b61081a565b6040516101d39190610fbe565b60405180910390f35b6101e4610935565b6040516101f19190610ffa565b60405180910390f35b610214600480360381019061020f9190611015565b61095b565b005b61021e6109e1565b6004600081548092919061023190611071565b9190505550604051806060016040528060045481526020018281526020016001151581525060036000600454815260200190815260200160002060008201518160000155602082015181600101908161028a91906112bb565b5060408201518160020160006101000a81548160ff0219169083151502179055509050507f4baff6e1d063f396c07ce2e85db23353a5b405879415449d8f2fcd54b8ede8f9600454826040516102e192919061138d565b60405180910390a150565b60045481565b600260009054906101000a900473ffffffffffffffffffffffffffffffffffffffff1681565b6003600082815260200190815260200160002060020160009054906101000a900460ff1661037b576040517f08c379a000000000000000000000000000000000000000000000000000000000815260040161037290611409565b60405180910390fd5b6000600160009054906101000a900473ffffffffffffffffffffffffffffffffffffffff1673ffffffffffffffffffffffffffffffffffffffff166391f1075d336040518263ffffffff1660e01b81526004016103d89190610e5f565b602060405180830381865afa1580156103f5573d6000803e3d6000fd5b505050506040513d601f19601f82011682018060405250810190610419919061143e565b03610459576040517f08c379a0000000000000000000000000000000000000000000000000000000008152600401610450906114b7565b60405180910390fd5b600260009054906101000a900473ffffffffffffffffffffffffffffffffffffffff1673ffffffffffffffffffffffffffffffffffffffff1663635e2980336040518263ffffffff1660e01b81526004016104b49190610e5f565b602060405180830381865afa1580156104d1573d6000803e3d6000fd5b505050506040513d601f19601f820116820180604052508101906104f59190611503565b610534576040517f08c379a000000000000000000000000000000000000000000000000000000000815260040161052b9061157c565b60405180910390fd5b60005b600560008381526020019081526020016000208054905081101561061f573373ffffffffffffffffffffffffffffffffffffffff166005600084815260200190815260200160002082815481106105915761059061159c565b5b9060005260206000200160009054906101000a900473ffffffffffffffffffffffffffffffffffffffff1673ffffffffffffffffffffffffffffffffffffffff1603610612576040517f08c379a00000000000000000000000000000000000000000000000000000000081526004016106099061163d565b60405180910390fd5b8080600101915050610537565b5060056000828152602001908152602001600020339080600181540180825580915050600190039060005260206000200160009091909190916101000a81548173ffffffffffffffffffffffffffffffffffffffff021916908373ffffffffffffffffffffffffffffffffffffffff1602179055507fc65c83424b9743cd85950d4d05ef8ab686409eafe1bf490c528b98f4eb80004881336040516106c592919061165d565b60405180910390a150565b600560205281600052604060002081815481106106ec57600080fd5b906000526020600020016000915091509054906101000a900473ffffffffffffffffffffffffffffffffffffffff1681565b6107266109e1565b6107306000610a68565b565b60008060009054906101000a900473ffffffffffffffffffffffffffffffffffffffff16905090565b6003602052806000526040600020600091509050806000015490806001018054610784906110e8565b80601f01602080910402602001604051908101604052809291908181526020018280546107b0906110e8565b80156107fd5780601f106107d2576101008083540402835291602001916107fd565b820191906000526020600020905b8154815290600101906020018083116107e057829003601f168201915b5050505050908060020160009054906101000a900460ff16905083565b600080600560008581526020019081526020016000208054806020026020016040519081016040528092919081815260200182805480156108b057602002820191906000526020600020905b8160009054906101000a900473ffffffffffffffffffffffffffffffffffffffff1673ffffffffffffffffffffffffffffffffffffffff1681526020019060010190808311610866575b5050505050905060005b8151811015610928578373ffffffffffffffffffffffffffffffffffffffff168282815181106108ed576108ec61159c565b5b602002602001015173ffffffffffffffffffffffffffffffffffffffff160361091b5760019250505061092f565b80806001019150506108ba565b5060009150505b92915050565b600160009054906101000a900473ffffffffffffffffffffffffffffffffffffffff1681565b6109636109e1565b600073ffffffffffffffffffffffffffffffffffffffff168173ffffffffffffffffffffffffffffffffffffffff16036109d55760006040517f1e4fbdf70000000000000000000000000000000000000000000000000000000081526004016109cc9190610e5f565b60405180910390fd5b6109de81610a68565b50565b6109e9610b2c565b73ffffffffffffffffffffffffffffffffffffffff16610a07610732565b73ffffffffffffffffffffffffffffffffffffffff1614610a6657610a2a610b2c565b6040517f118cdaa7000000000000000000000000000000000000000000000000000000008152600401610a5d9190610e5f565b60405180910390fd5b565b60008060009054906101000a900473ffffffffffffffffffffffffffffffffffffffff169050816000806101000a81548173ffffffffffffffffffffffffffffffffffffffff021916908373ffffffffffffffffffffffffffffffffffffffff1602179055508173ffffffffffffffffffffffffffffffffffffffff168173ffffffffffffffffffffffffffffffffffffffff167f8be0079c531659141344cd1fd0a4f28419497f9722a3daafe3b4186f6b6457e060405160405180910390a35050565b600033905090565b6000604051905090565b600080fd5b600080fd5b600080fd5b600080fd5b6000601f19601f8301169050919050565b7f4e487b7100000000000000000000000000000000000000000000000000000000600052604160045260246000fd5b610b9b82610b52565b810181811067ffffffffffffffff82111715610bba57610bb9610b63565b5b80604052505050565b6000610bcd610b34565b9050610bd98282610b92565b919050565b600067ffffffffffffffff821115610bf957610bf8610b63565b5b610c0282610b52565b9050602081019050919050565b82818337600083830152505050565b6000610c31610c2c84610bde565b610bc3565b905082815260208101848484011115610c4d57610c4c610b4d565b5b610c58848285610c0f565b509392505050565b600082601f830112610c7557610c74610b48565b5b8135610c85848260208601610c1e565b91505092915050565b600060208284031215610ca457610ca3610b3e565b5b600082013567ffffffffffffffff811115610cc257610cc1610b43565b5b610cce84828501610c60565b91505092915050565b6000819050919050565b610cea81610cd7565b82525050565b6000602082019050610d056000830184610ce1565b92915050565b600073ffffffffffffffffffffffffffffffffffffffff82169050919050565b6000819050919050565b6000610d50610d4b610d4684610d0b565b610d2b565b610d0b565b9050919050565b6000610d6282610d35565b9050919050565b6000610d7482610d57565b9050919050565b610d8481610d69565b82525050565b6000602082019050610d9f6000830184610d7b565b92915050565b610dae81610cd7565b8114610db957600080fd5b50565b600081359050610dcb81610da5565b92915050565b600060208284031215610de757610de6610b3e565b5b6000610df584828501610dbc565b91505092915050565b60008060408385031215610e1557610e14610b3e565b5b6000610e2385828601610dbc565b9250506020610e3485828601610dbc565b9150509250929050565b6000610e4982610d0b565b9050919050565b610e5981610e3e565b82525050565b6000602082019050610e746000830184610e50565b92915050565b600081519050919050565b600082825260208201905092915050565b60005b83811015610eb4578082015181840152602081019050610e99565b60008484015250505050565b6000610ecb82610e7a565b610ed58185610e85565b9350610ee5818560208601610e96565b610eee81610b52565b840191505092915050565b60008115159050919050565b610f0e81610ef9565b82525050565b6000606082019050610f296000830186610ce1565b8181036020830152610f3b8185610ec0565b9050610f4a6040830184610f05565b949350505050565b610f5b81610e3e565b8114610f6657600080fd5b50565b600081359050610f7881610f52565b92915050565b60008060408385031215610f9557610f94610b3e565b5b6000610fa385828601610dbc565b9250506020610fb485828601610f69565b9150509250929050565b6000602082019050610fd36000830184610f05565b92915050565b6000610fe482610d57565b9050919050565b610ff481610fd9565b82525050565b600060208201905061100f6000830184610feb565b92915050565b60006020828403121561102b5761102a610b3e565b5b600061103984828501610f69565b91505092915050565b7f4e487b7100000000000000000000000000000000000000000000000000000000600052601160045260246000fd5b600061107c82610cd7565b91507fffffffffffffffffffffffffffffffffffffffffffffffffffffffffffffffff82036110ae576110ad611042565b5b600182019050919050565b7f4e487b7100000000000000000000000000000000000000000000000000000000600052602260045260246000fd5b6000600282049050600182168061110057607f821691505b602082108103611113576111126110b9565b5b50919050565b60008190508160005260206000209050919050565b60006020601f8301049050919050565b600082821b905092915050565b60006008830261117b7fffffffffffffffffffffffffffffffffffffffffffffffffffffffffffffffff8261113e565b611185868361113e565b95508019841693508086168417925050509392505050565b60006111b86111b36111ae84610cd7565b610d2b565b610cd7565b9050919050565b6000819050919050565b6111d28361119d565b6111e66111de826111bf565b84845461114b565b825550505050565b600090565b6111fb6111ee565b6112068184846111c9565b505050565b5b8181101561122a5761121f6000826111f3565b60018101905061120c565b5050565b601f82111561126f5761124081611119565b6112498461112e565b81016020851015611258578190505b61126c6112648561112e565b83018261120b565b50505b505050565b600082821c905092915050565b600061129260001984600802611274565b1980831691505092915050565b60006112ab8383611281565b9150826002028217905092915050565b6112c482610e7a565b67ffffffffffffffff8111156112dd576112dc610b63565b5b6112e782546110e8565b6112f282828561122e565b600060209050601f8311600181146113255760008415611313578287015190505b61131d858261129f565b865550611385565b601f19841661133386611119565b60005b8281101561135b57848901518255600182019150602085019450602081019050611336565b868310156113785784890151611374601f891682611281565b8355505b6001600288020188555050505b505050505050565b60006040820190506113a26000830185610ce1565b81810360208301526113b48184610ec0565b90509392505050565b7f436f75727365206973206e6f7420616374697665000000000000000000000000600082015250565b60006113f3601483610e85565b91506113fe826113bd565b602082019050919050565b60006020820190508181036000830152611422816113e6565b9050919050565b60008151905061143881610da5565b92915050565b60006020828403121561145457611453610b3e565b5b600061146284828501611429565b91505092915050565b7f4e6f2076616c6964204964656e74697479204e465420666f756e640000000000600082015250565b60006114a1601b83610e85565b91506114ac8261146b565b602082019050919050565b600060208201905081810360008301526114d081611494565b9050919050565b6114e081610ef9565b81146114eb57600080fd5b50565b6000815190506114fd816114d7565b92915050565b60006020828403121561151957611518610b3e565b5b6000611527848285016114ee565b91505092915050565b7f466565206e6f7420706169640000000000000000000000000000000000000000600082015250565b6000611566600c83610e85565b915061157182611530565b602082019050919050565b6000602082019050818103600083015261159581611559565b9050919050565b7f4e487b7100000000000000000000000000000000000000000000000000000000600052603260045260246000fd5b7f416c7265616479207265676973746572656420666f72207468697320636f757260008201527f7365000000000000000000000000000000000000000000000000000000000000602082015250565b6000611627602283610e85565b9150611632826115cb565b604082019050919050565b600060208201905081810360008301526116568161161a565b9050919050565b60006040820190506116726000830185610ce1565b61167f6020830184610e50565b939250505056fea26469706673582212209c754901777ff9b112402c20d95676501eeaa565a3a6a87d8809a6acca40c6d164736f6c634300081c0033",
  "linkReferences": {},
  "deployedLinkReferences": {}
}