{
  "_format": "hh-sol-artifact-1",
  "contractName": "CertificateNFT",
  "sourceName": "contracts/CertificateNFT.sol",
  "abi": [
    {
      "inputs": [],
      "stateMutability": "nonpayable",
      "type": "constructor"
    },
    {
      "inputs": [
        {
          "internalType": "address",
          "name": "sender",
          "type": "address"
        },
        {
          "internalType": "uint256",
          "name": "tokenId",
          "type": "uint256"
        },
        {
          "internalType": "address",
          "name": "owner",
          "type": "address"
        }
      ],
      "name": "ERC721IncorrectOwner",
      "type": "error"
    },
    {
      "inputs": [
        {
          "internalType": "address",
          "name": "operator",
          "type": "address"
        },
        {
          "internalType": "uint256",
          "name": "tokenId",
          "type": "uint256"
        }
      ],
      "name": "ERC721InsufficientApproval",
      "type": "error"
    },
    {
      "inputs": [
        {
          "internalType": "address",
          "name": "approver",
          "type": "address"
        }
      ],
      "name": "ERC721InvalidApprover",
      "type": "error"
    },
    {
      "inputs": [
        {
          "internalType": "address",
          "name": "operator",
          "type": "address"
        }
      ],
      "name": "ERC721InvalidOperator",
      "type": "error"
    },
    {
      "inputs": [
        {
          "internalType": "address",
          "name": "owner",
          "type": "address"
        }
      ],
      "name": "ERC721InvalidOwner",
      "type": "error"
    },
    {
      "inputs": [
        {
          "internalType": "address",
          "name": "receiver",
          "type": "address"
        }
      ],
      "name": "ERC721InvalidReceiver",
      "type": "error"
    },
    {
      "inputs": [
        {
          "internalType": "address",
          "name": "sender",
          "type": "address"
        }
      ],
      "name": "ERC721InvalidSender",
      "type": "error"
    },
    {
      "inputs": [
        {
          "internalType": "uint256",
          "name": "tokenId",
          "type": "uint256"
        }
      ],
      "name": "ERC721NonexistentToken",
      "type": "error"
    },
    {
      "inputs": [
        {
          "internalType": "address",
          "name": "owner",
          "type": "address"
        }
      ],
      "name": "OwnableInvalidOwner",
      "type": "error"
    },
    {
      "inputs": [
        {
          "internalType": "address",
          "name": "account",
          "type": "address"
        }
      ],
      "name": "OwnableUnauthorizedAccount",
      "type": "error"
    },
    {
      "anonymous": false,
      "inputs": [
        {
          "indexed": true,
          "internalType": "address",
          "name": "owner",
          "type": "address"
        },
        {
          "indexed": true,
          "internalType": "address",
          "name": "approved",
          "type": "address"
        },
        {
          "indexed": true,
          "internalType": "uint256",
          "name": "tokenId",
          "type": "uint256"
        }
      ],
      "name": "Approval",
      "type": "event"
    },
    {
      "anonymous": false,
      "inputs": [
        {
          "indexed": true,
          "internalType": "address",
          "name": "owner",
          "type": "address"
        },
        {
          "indexed": true,
          "internalType": "address",
          "name": "operator",
          "type": "address"
        },
        {
          "indexed": false,
          "internalType": "bool",
          "name": "approved",
          "type": "bool"
        }
      ],
      "name": "ApprovalForAll",
      "type": "event"
    },
    {
      "anonymous": false,
      "inputs": [
        {
          "indexed": false,
          "internalType": "uint256",
          "name": "certificateId",
          "type": "uint256"
        },
        {
          "indexed": false,
          "internalType": "address",
          "name": "to",
          "type": "address"
        },
        {
          "indexed": false,
          "internalType": "uint256",
          "name": "courseId",
          "type": "uint256"
        },
        {
          "indexed": false,
          "internalType": "string",
          "name": "certificateType",
          "type": "string"
        }
      ],
      "name": "CertificateIssued",
      "type": "event"
    },
    {
      "anonymous": false,
      "inputs": [
        {
          "indexed": true,
          "internalType": "address",
          "name": "previousOwner",
          "type": "address"
        },
        {
          "indexed": true,
          "internalType": "address",
          "name": "newOwner",
          "type": "address"
        }
      ],
      "name": "OwnershipTransferred",
      "type": "event"
    },
    {
      "anonymous": false,
      "inputs": [
        {
          "indexed": true,
          "internalType": "address",
          "name": "from",
          "type": "address"
        },
        {
          "indexed": true,
          "internalType": "address",
          "name": "to",
          "type": "address"
        },
        {
          "indexed": true,
          "internalType": "uint256",
          "name": "tokenId",
          "type": "uint256"
        }
      ],
      "name": "Transfer",
      "type": "event"
    },
    {
      "inputs": [
        {
          "internalType": "address",
          "name": "to",
          "type": "address"
        },
        {
          "internalType": "uint256",
          "name": "tokenId",
          "type": "uint256"
        }
      ],
      "name": "approve",
      "outputs": [],
      "stateMutability": "nonpayable",
      "type": "function"
    },
    {
      "inputs": [
        {
          "internalType": "address",
          "name": "owner",
          "type": "address"
        }
      ],
      "name": "balanceOf",
      "outputs": [
        {
          "internalType": "uint256",
          "name": "",
          "type": "uint256"
        }
      ],
      "stateMutability": "view",
      "type": "function"
    },
    {
      "inputs": [
        {
          "internalType": "uint256",
          "name": "",
          "type": "uint256"
        }
      ],
      "name": "certificates",
      "outputs": [
        {
          "internalType": "uint256",
          "name": "courseId",
          "type": "uint256"
        },
        {
          "internalType": "string",
          "name": "certificateType",
          "type": "string"
        },
        {
          "internalType": "string",
          "name": "ipfsFileId",
          "type": "string"
        }
      ],
      "stateMutability": "view",
      "type": "function"
    },
    {
      "inputs": [],
      "name": "currentCertificateId",
      "outputs": [
        {
          "internalType": "uint256",
          "name": "",
          "type": "uint256"
        }
      ],
      "stateMutability": "view",
      "type": "function"
    },
    {
      "inputs": [
        {
          "internalType": "uint256",
          "name": "tokenId",
          "type": "uint256"
        }
      ],
      "name": "getApproved",
      "outputs": [
        {
          "internalType": "address",
          "name": "",
          "type": "address"
        }
      ],
      "stateMutability": "view",
      "type": "function"
    },
    {
      "inputs": [
        {
          "internalType": "address",
          "name": "owner",
          "type": "address"
        },
        {
          "internalType": "address",
          "name": "operator",
          "type": "address"
        }
      ],
      "name": "isApprovedForAll",
      "outputs": [
        {
          "internalType": "bool",
          "name": "",
          "type": "bool"
        }
      ],
      "stateMutability": "view",
      "type": "function"
    },
    {
      "inputs": [
        {
          "internalType": "address",
          "name": "owner",
          "type": "address"
        }
      ],
      "name": "listCertificates",
      "outputs": [
        {
          "internalType": "uint256[]",
          "name": "",
          "type": "uint256[]"
        }
      ],
      "stateMutability": "view",
      "type": "function"
    },
    {
      "inputs": [
        {
          "internalType": "address",
          "name": "to",
          "type": "address"
        },
        {
          "internalType": "uint256",
          "name": "courseId",
          "type": "uint256"
        },
        {
          "internalType": "string",
          "name": "certificateType",
          "type": "string"
        },
        {
          "internalType": "string",
          "name": "ipfsFileId",
          "type": "string"
        }
      ],
      "name": "mintCertificate",
      "outputs": [
        {
          "internalType": "uint256",
          "name": "",
          "type": "uint256"
        }
      ],
      "stateMutability": "nonpayable",
      "type": "function"
    },
    {
      "inputs": [],
      "name": "name",
      "outputs": [
        {
          "internalType": "string",
          "name": "",
          "type": "string"
        }
      ],
      "stateMutability": "view",
      "type": "function"
    },
    {
      "inputs": [],
      "name": "owner",
      "outputs": [
        {
          "internalType": "address",
          "name": "",
          "type": "address"
        }
      ],
      "stateMutability": "view",
      "type": "function"
    },
    {
      "inputs": [
        {
          "internalType": "uint256",
          "name": "tokenId",
          "type": "uint256"
        }
      ],
      "name": "ownerOf",
      "outputs": [
        {
          "internalType": "address",
          "name": "",
          "type": "address"
        }
      ],
      "stateMutability": "view",
      "type": "function"
    },
    {
      "inputs": [],
      "name": "renounceOwnership",
      "outputs": [],
      "stateMutability": "nonpayable",
      "type": "function"
    },
    {
      "inputs": [
        {
          "internalType": "address",
          "name": "from",
          "type": "address"
        },
        {
          "internalType": "address",
          "name": "to",
          "type": "address"
        },
        {
          "internalType": "uint256",
          "name": "tokenId",
          "type": "uint256"
        }
      ],
      "name": "safeTransferFrom",
      "outputs": [],
      "stateMutability": "nonpayable",
      "type": "function"
    },
    {
      "inputs": [
        {
          "internalType": "address",
          "name": "from",
          "type": "address"
        },
        {
          "internalType": "address",
          "name": "to",
          "type": "address"
        },
        {
          "internalType": "uint256",
          "name": "tokenId",
          "type": "uint256"
        },
        {
          "internalType": "bytes",
          "name": "data",
          "type": "bytes"
        }
      ],
      "name": "safeTransferFrom",
      "outputs": [],
      "stateMutability": "nonpayable",
      "type": "function"
    },
    {
      "inputs": [
        {
          "internalType": "address",
          "name": "operator",
          "type": "address"
        },
        {
          "internalType": "bool",
          "name": "approved",
          "type": "bool"
        }
      ],
      "name": "setApprovalForAll",
      "outputs": [],
      "stateMutability": "nonpayable",
      "type": "function"
    },
    {
      "inputs": [
        {
          "internalType": "bytes4",
          "name": "interfaceId",
          "type": "bytes4"
        }
      ],
      "name": "supportsInterface",
      "outputs": [
        {
          "internalType": "bool",
          "name": "",
          "type": "bool"
        }
      ],
      "stateMutability": "view",
      "type": "function"
    },
    {
      "inputs": [],
      "name": "symbol",
      "outputs": [
        {
          "internalType": "string",
          "name": "",
          "type": "string"
        }
      ],
      "stateMutability": "view",
      "type": "function"
    },
    {
      "inputs": [
        {
          "internalType": "uint256",
          "name": "tokenId",
          "type": "uint256"
        }
      ],
      "name": "tokenURI",
      "outputs": [
        {
          "internalType": "string",
          "name": "",
          "type": "string"
        }
      ],
      "stateMutability": "view",
      "type": "function"
    },
    {
      "inputs": [
        {
          "internalType": "address",
          "name": "from",
          "type": "address"
        },
        {
          "internalType": "address",
          "name": "to",
          "type": "address"
        },
        {
          "internalType": "uint256",
          "name": "tokenId",
          "type": "uint256"
        }
      ],
      "name": "transferFrom",
      "outputs": [],
      "stateMutability": "nonpayable",
      "type": "function"
    },
    {
      "inputs": [
        {
          "internalType": "address",
          "name": "newOwner",
          "type": "address"
        }
      ],
      "name": "transferOwnership",
      "outputs": [],
      "stateMutability": "nonpayable",
      "type": "function"
    }
  ],
  "bytecode": "0x608060405234801561001057600080fd5b50336040518060400160405280601581526020017f49495444686172776164436572746966696361746500000000000000000000008152506040518060400160405280600a81526020017f49495444482d4345525400000000000000000000000000000000000000000000815250816000908161008d919061043d565b50806001908161009d919061043d565b505050600073ffffffffffffffffffffffffffffffffffffffff168173ffffffffffffffffffffffffffffffffffffffff16036101125760006040517f1e4fbdf70000000000000000000000000000000000000000000000000000000081526004016101099190610550565b60405180910390fd5b6101218161012760201b60201c565b5061056b565b6000600660009054906101000a900473ffffffffffffffffffffffffffffffffffffffff16905081600660006101000a81548173ffffffffffffffffffffffffffffffffffffffff021916908373ffffffffffffffffffffffffffffffffffffffff1602179055508173ffffffffffffffffffffffffffffffffffffffff168173ffffffffffffffffffffffffffffffffffffffff167f8be0079c531659141344cd1fd0a4f28419497f9722a3daafe3b4186f6b6457e060405160405180910390a35050565b600081519050919050565b7f4e487b7100000000000000000000000000000000000000000000000000000000600052604160045260246000fd5b7f4e487b7100000000000000000000000000000000000000000000000000000000600052602260045260246000fd5b6000600282049050600182168061026e57607f821691505b60208210810361028157610280610227565b5b50919050565b60008190508160005260206000209050919050565b60006020601f8301049050919050565b600082821b905092915050565b6000600883026102e97fffffffffffffffffffffffffffffffffffffffffffffffffffffffffffffffff826102ac565b6102f386836102ac565b95508019841693508086168417925050509392505050565b6000819050919050565b6000819050919050565b600061033a6103356103308461030b565b610315565b61030b565b9050919050565b6000819050919050565b6103548361031f565b61036861036082610341565b8484546102b9565b825550505050565b600090565b61037d610370565b61038881848461034b565b505050565b5b818110156103ac576103a1600082610375565b60018101905061038e565b5050565b601f8211156103f1576103c281610287565b6103cb8461029c565b810160208510156103da578190505b6103ee6103e68561029c565b83018261038d565b50505b505050565b600082821c905092915050565b6000610414600019846008026103f6565b1980831691505092915050565b600061042d8383610403565b9150826002028217905092915050565b610446826101ed565b67ffffffffffffffff81111561045f5761045e6101f8565b5b6104698254610256565b6104748282856103b0565b600060209050601f8311600181146104a75760008415610495578287015190505b61049f8582610421565b865550610507565b601f1984166104b586610287565b60005b828110156104dd578489015182556001820191506020850194506020810190506104b8565b868310156104fa57848901516104f6601f891682610403565b8355505b6001600288020188555050505b505050505050565b600073ffffffffffffffffffffffffffffffffffffffff82169050919050565b600061053a8261050f565b9050919050565b61054a8161052f565b82525050565b60006020820190506105656000830184610541565b92915050565b6129068061057a6000396000f3fe608060405234801561001057600080fd5b506004361061012b5760003560e01c8063715018a6116100ad578063b88d4fde11610071578063b88d4fde14610344578063c87b56dd14610360578063e2dbcd9e14610390578063e985e9c5146103c0578063f2fde38b146103f05761012b565b8063715018a6146102b25780638da5cb5b146102bc5780638fefd32b146102da57806395d89b411461030a578063a22cb465146103285761012b565b806323b872dd116100f457806323b872dd146101e857806342842e0e146102045780636352211e14610220578063663b3e221461025057806370a08231146102825761012b565b80622d081e1461013057806301ffc9a71461014e57806306fdde031461017e578063081812fc1461019c578063095ea7b3146101cc575b600080fd5b61013861040c565b6040516101459190611b22565b60405180910390f35b61016860048036038101906101639190611ba9565b610412565b6040516101759190611bf1565b60405180910390f35b6101866104f4565b6040516101939190611c9c565b60405180910390f35b6101b660048036038101906101b19190611cea565b610586565b6040516101c39190611d58565b60405180910390f35b6101e660048036038101906101e19190611d9f565b6105a2565b005b61020260048036038101906101fd9190611ddf565b6105b8565b005b61021e60048036038101906102199190611ddf565b6105f3565b005b61023a60048036038101906102359190611cea565b610613565b6040516102479190611d58565b60405180910390f35b61026a60048036038101906102659190611cea565b610625565b60405161027993929190611e32565b60405180910390f35b61029c60048036038101906102979190611e77565b61075f565b6040516102a99190611b22565b60405180910390f35b6102ba610819565b005b6102c461082d565b6040516102d19190611d58565b60405180910390f35b6102f460048036038101906102ef9190611fd9565b610857565b6040516103019190611b22565b60405180910390f35b61031261099a565b60405161031f9190611c9c565b60405180910390f35b610342600480360381019061033d91906120a4565b610a2c565b005b61035e60048036038101906103599190612185565b610a42565b005b61037a60048036038101906103759190611cea565b610a67565b6040516103879190611c9c565b60405180910390f35b6103aa60048036038101906103a59190611e77565b610ad0565b6040516103b791906122c6565b60405180910390f35b6103da60048036038101906103d591906122e8565b610b67565b6040516103e79190611bf1565b60405180910390f35b61040a60048036038101906104059190611e77565b610bfb565b005b60075481565b60007f80ac58cd000000000000000000000000000000000000000000000000000000007bffffffffffffffffffffffffffffffffffffffffffffffffffffffff1916827bffffffffffffffffffffffffffffffffffffffffffffffffffffffff191614806104dd57507f5b5e139f000000000000000000000000000000000000000000000000000000007bffffffffffffffffffffffffffffffffffffffffffffffffffffffff1916827bffffffffffffffffffffffffffffffffffffffffffffffffffffffff1916145b806104ed57506104ec82610c81565b5b9050919050565b60606000805461050390612357565b80601f016020809104026020016040519081016040528092919081815260200182805461052f90612357565b801561057c5780601f106105515761010080835404028352916020019161057c565b820191906000526020600020905b81548152906001019060200180831161055f57829003601f168201915b5050505050905090565b600061059182610ceb565b5061059b82610d73565b9050919050565b6105b482826105af610db0565b610db8565b5050565b6040517f08c379a00000000000000000000000000000000000000000000000000000000081526004016105ea906123d4565b60405180910390fd5b61060e83838360405180602001604052806000815250610a42565b505050565b600061061e82610ceb565b9050919050565b600960205280600052604060002060009150905080600001549080600101805461064e90612357565b80601f016020809104026020016040519081016040528092919081815260200182805461067a90612357565b80156106c75780601f1061069c576101008083540402835291602001916106c7565b820191906000526020600020905b8154815290600101906020018083116106aa57829003601f168201915b5050505050908060020180546106dc90612357565b80601f016020809104026020016040519081016040528092919081815260200182805461070890612357565b80156107555780601f1061072a57610100808354040283529160200191610755565b820191906000526020600020905b81548152906001019060200180831161073857829003601f168201915b5050505050905083565b60008073ffffffffffffffffffffffffffffffffffffffff168273ffffffffffffffffffffffffffffffffffffffff16036107d25760006040517f89c62b640000000000000000000000000000000000000000000000000000000081526004016107c99190611d58565b60405180910390fd5b600360008373ffffffffffffffffffffffffffffffffffffffff1673ffffffffffffffffffffffffffffffffffffffff168152602001908152602001600020549050919050565b610821610dca565b61082b6000610e51565b565b6000600660009054906101000a900473ffffffffffffffffffffffffffffffffffffffff16905090565b6000610861610dca565b600060076000815461087290612423565b91905081905590506108848682610f17565b604051806060016040528086815260200185815260200184815250600960008381526020019081526020016000206000820151816000015560208201518160010190816108d19190612617565b5060408201518160020190816108e79190612617565b50905050600860008773ffffffffffffffffffffffffffffffffffffffff1673ffffffffffffffffffffffffffffffffffffffff1681526020019081526020016000208190806001815401808255809150506001900390600052602060002001600090919091909150557f70e9dd7b2d7680ff10a6b1f6b97fe2e9888eb3098a9e2ee66104994c8c751adc8187878760405161098694939291906126e9565b60405180910390a180915050949350505050565b6060600180546109a990612357565b80601f01602080910402602001604051908101604052809291908181526020018280546109d590612357565b8015610a225780601f106109f757610100808354040283529160200191610a22565b820191906000526020600020905b815481529060010190602001808311610a0557829003601f168201915b5050505050905090565b610a3e610a37610db0565b8383611010565b5050565b610a4d8484846105b8565b610a61610a58610db0565b8585858561117f565b50505050565b6060610a7282610ceb565b506000610a7d611330565b90506000815111610a9d5760405180602001604052806000815250610ac8565b80610aa784611347565b604051602001610ab8929190612771565b6040516020818303038152906040525b915050919050565b6060600860008373ffffffffffffffffffffffffffffffffffffffff1673ffffffffffffffffffffffffffffffffffffffff168152602001908152602001600020805480602002602001604051908101604052809291908181526020018280548015610b5b57602002820191906000526020600020905b815481526020019060010190808311610b47575b50505050509050919050565b6000600560008473ffffffffffffffffffffffffffffffffffffffff1673ffffffffffffffffffffffffffffffffffffffff16815260200190815260200160002060008373ffffffffffffffffffffffffffffffffffffffff1673ffffffffffffffffffffffffffffffffffffffff16815260200190815260200160002060009054906101000a900460ff16905092915050565b610c03610dca565b600073ffffffffffffffffffffffffffffffffffffffff168173ffffffffffffffffffffffffffffffffffffffff1603610c755760006040517f1e4fbdf7000000000000000000000000000000000000000000000000000000008152600401610c6c9190611d58565b60405180910390fd5b610c7e81610e51565b50565b60007f01ffc9a7000000000000000000000000000000000000000000000000000000007bffffffffffffffffffffffffffffffffffffffffffffffffffffffff1916827bffffffffffffffffffffffffffffffffffffffffffffffffffffffff1916149050919050565b600080610cf783611415565b9050600073ffffffffffffffffffffffffffffffffffffffff168173ffffffffffffffffffffffffffffffffffffffff1603610d6a57826040517f7e273289000000000000000000000000000000000000000000000000000000008152600401610d619190611b22565b60405180910390fd5b80915050919050565b60006004600083815260200190815260200160002060009054906101000a900473ffffffffffffffffffffffffffffffffffffffff169050919050565b600033905090565b610dc58383836001611452565b505050565b610dd2610db0565b73ffffffffffffffffffffffffffffffffffffffff16610df061082d565b73ffffffffffffffffffffffffffffffffffffffff1614610e4f57610e13610db0565b6040517f118cdaa7000000000000000000000000000000000000000000000000000000008152600401610e469190611d58565b60405180910390fd5b565b6000600660009054906101000a900473ffffffffffffffffffffffffffffffffffffffff16905081600660006101000a81548173ffffffffffffffffffffffffffffffffffffffff021916908373ffffffffffffffffffffffffffffffffffffffff1602179055508173ffffffffffffffffffffffffffffffffffffffff168173ffffffffffffffffffffffffffffffffffffffff167f8be0079c531659141344cd1fd0a4f28419497f9722a3daafe3b4186f6b6457e060405160405180910390a35050565b600073ffffffffffffffffffffffffffffffffffffffff168273ffffffffffffffffffffffffffffffffffffffff1603610f895760006040517f64a0ae92000000000000000000000000000000000000000000000000000000008152600401610f809190611d58565b60405180910390fd5b6000610f9783836000611617565b9050600073ffffffffffffffffffffffffffffffffffffffff168173ffffffffffffffffffffffffffffffffffffffff161461100b5760006040517f73c6ac6e0000000000000000000000000000000000000000000000000000000081526004016110029190611d58565b60405180910390fd5b505050565b600073ffffffffffffffffffffffffffffffffffffffff168273ffffffffffffffffffffffffffffffffffffffff160361108157816040517f5b08ba180000000000000000000000000000000000000000000000000000000081526004016110789190611d58565b60405180910390fd5b80600560008573ffffffffffffffffffffffffffffffffffffffff1673ffffffffffffffffffffffffffffffffffffffff16815260200190815260200160002060008473ffffffffffffffffffffffffffffffffffffffff1673ffffffffffffffffffffffffffffffffffffffff16815260200190815260200160002060006101000a81548160ff0219169083151502179055508173ffffffffffffffffffffffffffffffffffffffff168373ffffffffffffffffffffffffffffffffffffffff167f17307eab39ab6107e8899845ad3d59bd9653f200f220920489ca2b5937696c31836040516111729190611bf1565b60405180910390a3505050565b60008373ffffffffffffffffffffffffffffffffffffffff163b1115611329578273ffffffffffffffffffffffffffffffffffffffff1663150b7a02868685856040518563ffffffff1660e01b81526004016111de94939291906127ea565b6020604051808303816000875af192505050801561121a57506040513d601f19601f82011682018060405250810190611217919061284b565b60015b61129e573d806000811461124a576040519150601f19603f3d011682016040523d82523d6000602084013e61124f565b606091505b50600081510361129657836040517f64a0ae9200000000000000000000000000000000000000000000000000000000815260040161128d9190611d58565b60405180910390fd5b805181602001fd5b63150b7a0260e01b7bffffffffffffffffffffffffffffffffffffffffffffffffffffffff1916817bffffffffffffffffffffffffffffffffffffffffffffffffffffffff19161461132757836040517f64a0ae9200000000000000000000000000000000000000000000000000000000815260040161131e9190611d58565b60405180910390fd5b505b5050505050565b606060405180602001604052806000815250905090565b60606000600161135684611831565b01905060008167ffffffffffffffff81111561137557611374611eae565b5b6040519080825280601f01601f1916602001820160405280156113a75781602001600182028036833780820191505090505b509050600082602001820190505b60011561140a578080600190039150507f3031323334353637383961626364656600000000000000000000000000000000600a86061a8153600a85816113fe576113fd612878565b5b049450600085036113b5575b819350505050919050565b60006002600083815260200190815260200160002060009054906101000a900473ffffffffffffffffffffffffffffffffffffffff169050919050565b808061148b5750600073ffffffffffffffffffffffffffffffffffffffff168273ffffffffffffffffffffffffffffffffffffffff1614155b156115bf57600061149b84610ceb565b9050600073ffffffffffffffffffffffffffffffffffffffff168373ffffffffffffffffffffffffffffffffffffffff161415801561150657508273ffffffffffffffffffffffffffffffffffffffff168173ffffffffffffffffffffffffffffffffffffffff1614155b801561151957506115178184610b67565b155b1561155b57826040517fa9fbf51f0000000000000000000000000000000000000000000000000000000081526004016115529190611d58565b60405180910390fd5b81156115bd57838573ffffffffffffffffffffffffffffffffffffffff168273ffffffffffffffffffffffffffffffffffffffff167f8c5be1e5ebec7d5bd14f71427d1e84f3dd0314c0f7b2291e5b200ac8c7c3b92560405160405180910390a45b505b836004600085815260200190815260200160002060006101000a81548173ffffffffffffffffffffffffffffffffffffffff021916908373ffffffffffffffffffffffffffffffffffffffff16021790555050505050565b60008061162384611415565b9050600073ffffffffffffffffffffffffffffffffffffffff168373ffffffffffffffffffffffffffffffffffffffff161461166557611664818486611984565b5b600073ffffffffffffffffffffffffffffffffffffffff168173ffffffffffffffffffffffffffffffffffffffff16146116f6576116a7600085600080611452565b6001600360008373ffffffffffffffffffffffffffffffffffffffff1673ffffffffffffffffffffffffffffffffffffffff168152602001908152602001600020600082825403925050819055505b600073ffffffffffffffffffffffffffffffffffffffff168573ffffffffffffffffffffffffffffffffffffffff1614611779576001600360008773ffffffffffffffffffffffffffffffffffffffff1673ffffffffffffffffffffffffffffffffffffffff168152602001908152602001600020600082825401925050819055505b846002600086815260200190815260200160002060006101000a81548173ffffffffffffffffffffffffffffffffffffffff021916908373ffffffffffffffffffffffffffffffffffffffff160217905550838573ffffffffffffffffffffffffffffffffffffffff168273ffffffffffffffffffffffffffffffffffffffff167fddf252ad1be2c89b69c2b068fc378daa952ba7f163c4a11628f55a4df523b3ef60405160405180910390a4809150509392505050565b600080600090507a184f03e93ff9f4daa797ed6e38ed64bf6a1f010000000000000000831061188f577a184f03e93ff9f4daa797ed6e38ed64bf6a1f010000000000000000838161188557611884612878565b5b0492506040810190505b6d04ee2d6d415b85acef810000000083106118cc576d04ee2d6d415b85acef810000000083816118c2576118c1612878565b5b0492506020810190505b662386f26fc1000083106118fb57662386f26fc1000083816118f1576118f0612878565b5b0492506010810190505b6305f5e1008310611924576305f5e100838161191a57611919612878565b5b0492506008810190505b612710831061194957612710838161193f5761193e612878565b5b0492506004810190505b6064831061196c576064838161196257611961612878565b5b0492506002810190505b600a831061197b576001810190505b80915050919050565b61198f838383611a48565b611a4357600073ffffffffffffffffffffffffffffffffffffffff168373ffffffffffffffffffffffffffffffffffffffff1603611a0457806040517f7e2732890000000000000000000000000000000000000000000000000000000081526004016119fb9190611b22565b60405180910390fd5b81816040517f177e802f000000000000000000000000000000000000000000000000000000008152600401611a3a9291906128a7565b60405180910390fd5b505050565b60008073ffffffffffffffffffffffffffffffffffffffff168373ffffffffffffffffffffffffffffffffffffffff1614158015611b0057508273ffffffffffffffffffffffffffffffffffffffff168473ffffffffffffffffffffffffffffffffffffffff161480611ac15750611ac08484610b67565b5b80611aff57508273ffffffffffffffffffffffffffffffffffffffff16611ae783610d73565b73ffffffffffffffffffffffffffffffffffffffff16145b5b90509392505050565b6000819050919050565b611b1c81611b09565b82525050565b6000602082019050611b376000830184611b13565b92915050565b6000604051905090565b600080fd5b600080fd5b60007fffffffff0000000000000000000000000000000000000000000000000000000082169050919050565b611b8681611b51565b8114611b9157600080fd5b50565b600081359050611ba381611b7d565b92915050565b600060208284031215611bbf57611bbe611b47565b5b6000611bcd84828501611b94565b91505092915050565b60008115159050919050565b611beb81611bd6565b82525050565b6000602082019050611c066000830184611be2565b92915050565b600081519050919050565b600082825260208201905092915050565b60005b83811015611c46578082015181840152602081019050611c2b565b60008484015250505050565b6000601f19601f8301169050919050565b6000611c6e82611c0c565b611c788185611c17565b9350611c88818560208601611c28565b611c9181611c52565b840191505092915050565b60006020820190508181036000830152611cb68184611c63565b905092915050565b611cc781611b09565b8114611cd257600080fd5b50565b600081359050611ce481611cbe565b92915050565b600060208284031215611d0057611cff611b47565b5b6000611d0e84828501611cd5565b91505092915050565b600073ffffffffffffffffffffffffffffffffffffffff82169050919050565b6000611d4282611d17565b9050919050565b611d5281611d37565b82525050565b6000602082019050611d6d6000830184611d49565b92915050565b611d7c81611d37565b8114611d8757600080fd5b50565b600081359050611d9981611d73565b92915050565b60008060408385031215611db657611db5611b47565b5b6000611dc485828601611d8a565b9250506020611dd585828601611cd5565b9150509250929050565b600080600060608486031215611df857611df7611b47565b5b6000611e0686828701611d8a565b9350506020611e1786828701611d8a565b9250506040611e2886828701611cd5565b9150509250925092565b6000606082019050611e476000830186611b13565b8181036020830152611e598185611c63565b90508181036040830152611e6d8184611c63565b9050949350505050565b600060208284031215611e8d57611e8c611b47565b5b6000611e9b84828501611d8a565b91505092915050565b600080fd5b600080fd5b7f4e487b7100000000000000000000000000000000000000000000000000000000600052604160045260246000fd5b611ee682611c52565b810181811067ffffffffffffffff82111715611f0557611f04611eae565b5b80604052505050565b6000611f18611b3d565b9050611f248282611edd565b919050565b600067ffffffffffffffff821115611f4457611f43611eae565b5b611f4d82611c52565b9050602081019050919050565b82818337600083830152505050565b6000611f7c611f7784611f29565b611f0e565b905082815260208101848484011115611f9857611f97611ea9565b5b611fa3848285611f5a565b509392505050565b600082601f830112611fc057611fbf611ea4565b5b8135611fd0848260208601611f69565b91505092915050565b60008060008060808587031215611ff357611ff2611b47565b5b600061200187828801611d8a565b945050602061201287828801611cd5565b935050604085013567ffffffffffffffff81111561203357612032611b4c565b5b61203f87828801611fab565b925050606085013567ffffffffffffffff8111156120605761205f611b4c565b5b61206c87828801611fab565b91505092959194509250565b61208181611bd6565b811461208c57600080fd5b50565b60008135905061209e81612078565b92915050565b600080604083850312156120bb576120ba611b47565b5b60006120c985828601611d8a565b92505060206120da8582860161208f565b9150509250929050565b600067ffffffffffffffff8211156120ff576120fe611eae565b5b61210882611c52565b9050602081019050919050565b6000612128612123846120e4565b611f0e565b90508281526020810184848401111561214457612143611ea9565b5b61214f848285611f5a565b509392505050565b600082601f83011261216c5761216b611ea4565b5b813561217c848260208601612115565b91505092915050565b6000806000806080858703121561219f5761219e611b47565b5b60006121ad87828801611d8a565b94505060206121be87828801611d8a565b93505060406121cf87828801611cd5565b925050606085013567ffffffffffffffff8111156121f0576121ef611b4c565b5b6121fc87828801612157565b91505092959194509250565b600081519050919050565b600082825260208201905092915050565b6000819050602082019050919050565b61223d81611b09565b82525050565b600061224f8383612234565b60208301905092915050565b6000602082019050919050565b600061227382612208565b61227d8185612213565b935061228883612224565b8060005b838110156122b95781516122a08882612243565b97506122ab8361225b565b92505060018101905061228c565b5085935050505092915050565b600060208201905081810360008301526122e08184612268565b905092915050565b600080604083850312156122ff576122fe611b47565b5b600061230d85828601611d8a565b925050602061231e85828601611d8a565b9150509250929050565b7f4e487b7100000000000000000000000000000000000000000000000000000000600052602260045260246000fd5b6000600282049050600182168061236f57607f821691505b60208210810361238257612381612328565b5b50919050565b7f5472616e7366657273206172652064697361626c656400000000000000000000600082015250565b60006123be601683611c17565b91506123c982612388565b602082019050919050565b600060208201905081810360008301526123ed816123b1565b9050919050565b7f4e487b7100000000000000000000000000000000000000000000000000000000600052601160045260246000fd5b600061242e82611b09565b91507fffffffffffffffffffffffffffffffffffffffffffffffffffffffffffffffff82036124605761245f6123f4565b5b600182019050919050565b60008190508160005260206000209050919050565b60006020601f8301049050919050565b600082821b905092915050565b6000600883026124cd7fffffffffffffffffffffffffffffffffffffffffffffffffffffffffffffffff82612490565b6124d78683612490565b95508019841693508086168417925050509392505050565b6000819050919050565b600061251461250f61250a84611b09565b6124ef565b611b09565b9050919050565b6000819050919050565b61252e836124f9565b61254261253a8261251b565b84845461249d565b825550505050565b600090565b61255761254a565b612562818484612525565b505050565b5b818110156125865761257b60008261254f565b600181019050612568565b5050565b601f8211156125cb5761259c8161246b565b6125a584612480565b810160208510156125b4578190505b6125c86125c085612480565b830182612567565b50505b505050565b600082821c905092915050565b60006125ee600019846008026125d0565b1980831691505092915050565b600061260783836125dd565b9150826002028217905092915050565b61262082611c0c565b67ffffffffffffffff81111561263957612638611eae565b5b6126438254612357565b61264e82828561258a565b600060209050601f831160018114612681576000841561266f578287015190505b61267985826125fb565b8655506126e1565b601f19841661268f8661246b565b60005b828110156126b757848901518255600182019150602085019450602081019050612692565b868310156126d457848901516126d0601f8916826125dd565b8355505b6001600288020188555050505b505050505050565b60006080820190506126fe6000830187611b13565b61270b6020830186611d49565b6127186040830185611b13565b818103606083015261272a8184611c63565b905095945050505050565b600081905092915050565b600061274b82611c0c565b6127558185612735565b9350612765818560208601611c28565b80840191505092915050565b600061277d8285612740565b91506127898284612740565b91508190509392505050565b600081519050919050565b600082825260208201905092915050565b60006127bc82612795565b6127c681856127a0565b93506127d6818560208601611c28565b6127df81611c52565b840191505092915050565b60006080820190506127ff6000830187611d49565b61280c6020830186611d49565b6128196040830185611b13565b818103606083015261282b81846127b1565b905095945050505050565b60008151905061284581611b7d565b92915050565b60006020828403121561286157612860611b47565b5b600061286f84828501612836565b91505092915050565b7f4e487b7100000000000000000000000000000000000000000000000000000000600052601260045260246000fd5b60006040820190506128bc6000830185611d49565b6128c96020830184611b13565b939250505056fea2646970667358221220d6f8f184832e0f8a91af8962c10dac5f1046b49c091dbdb1a24d469601a1d6f764736f6c634300081c0033",
  "linkReferences": {},
  "deployedLinkReferences": {}
}