{
  "_format": "hh-sol-artifact-1",
  "contractName": "IdentityNFT",
  "sourceName": "contracts/IdentityNFT.sol",
  "abi": [
    {
      "inputs": [],
      "stateMutability": "nonpayable",
      "type": "constructor"
    },
    {
      "inputs": [
        {
          "internalType": "address",
          "name": "sender",
          "type": "address"
        },
        {
          "internalType": "uint256",
          "name": "tokenId",
          "type": "uint256"
        },
        {
          "internalType": "address",
          "name": "owner",
          "type": "address"
        }
      ],
      "name": "ERC721IncorrectOwner",
      "type": "error"
    },
    {
      "inputs": [
        {
          "internalType": "address",
          "name": "operator",
          "type": "address"
        },
        {
          "internalType": "uint256",
          "name": "tokenId",
          "type": "uint256"
        }
      ],
      "name": "ERC721InsufficientApproval",
      "type": "error"
    },
    {
      "inputs": [
        {
          "internalType": "address",
          "name": "approver",
          "type": "address"
        }
      ],
      "name": "ERC721InvalidApprover",
      "type": "error"
    },
    {
      "inputs": [
        {
          "internalType": "address",
          "name": "operator",
          "type": "address"
        }
      ],
      "name": "ERC721InvalidOperator",
      "type": "error"
    },
    {
      "inputs": [
        {
          "internalType": "address",
          "name": "owner",
          "type": "address"
        }
      ],
      "name": "ERC721InvalidOwner",
      "type": "error"
    },
    {
      "inputs": [
        {
          "internalType": "address",
          "name": "receiver",
          "type": "address"
        }
      ],
      "name": "ERC721InvalidReceiver",
      "type": "error"
    },
    {
      "inputs": [
        {
          "internalType": "address",
          "name": "sender",
          "type": "address"
        }
      ],
      "name": "ERC721InvalidSender",
      "type": "error"
    },
    {
      "inputs": [
        {
          "internalType": "uint256",
          "name": "tokenId",
          "type": "uint256"
        }
      ],
      "name": "ERC721NonexistentToken",
      "type": "error"
    },
    {
      "inputs": [
        {
          "internalType": "address",
          "name": "owner",
          "type": "address"
        }
      ],
      "name": "OwnableInvalidOwner",
      "type": "error"
    },
    {
      "inputs": [
        {
          "internalType": "address",
          "name": "account",
          "type": "address"
        }
      ],
      "name": "OwnableUnauthorizedAccount",
      "type": "error"
    },
    {
      "anonymous": false,
      "inputs": [
        {
          "indexed": true,
          "internalType": "address",
          "name": "owner",
          "type": "address"
        },
        {
          "indexed": true,
          "internalType": "address",
          "name": "approved",
          "type": "address"
        },
        {
          "indexed": true,
          "internalType": "uint256",
          "name": "tokenId",
          "type": "uint256"
        }
      ],
      "name": "Approval",
      "type": "event"
    },
    {
      "anonymous": false,
      "inputs": [
        {
          "indexed": true,
          "internalType": "address",
          "name": "owner",
          "type": "address"
        },
        {
          "indexed": true,
          "internalType": "address",
          "name": "operator",
          "type": "address"
        },
        {
          "indexed": false,
          "internalType": "bool",
          "name": "approved",
          "type": "bool"
        }
      ],
      "name": "ApprovalForAll",
      "type": "event"
    },
    {
      "anonymous": false,
      "inputs": [
        {
          "indexed": false,
          "internalType": "uint256",
          "name": "tokenId",
          "type": "uint256"
        },
        {
          "indexed": false,
          "internalType": "address",
          "name": "owner",
          "type": "address"
        },
        {
          "indexed": false,
          "internalType": "string",
          "name": "name",
          "type": "string"
        },
        {
          "indexed": false,
          "internalType": "enum IdentityNFT.Role",
          "name": "role",
          "type": "uint8"
        }
      ],
      "name": "IdentityIssued",
      "type": "event"
    },
    {
      "anonymous": false,
      "inputs": [
        {
          "indexed": true,
          "internalType": "address",
          "name": "previousOwner",
          "type": "address"
        },
        {
          "indexed": true,
          "internalType": "address",
          "name": "newOwner",
          "type": "address"
        }
      ],
      "name": "OwnershipTransferred",
      "type": "event"
    },
    {
      "anonymous": false,
      "inputs": [
        {
          "indexed": true,
          "internalType": "address",
          "name": "from",
          "type": "address"
        },
        {
          "indexed": true,
          "internalType": "address",
          "name": "to",
          "type": "address"
        },
        {
          "indexed": true,
          "internalType": "uint256",
          "name": "tokenId",
          "type": "uint256"
        }
      ],
      "name": "Transfer",
      "type": "event"
    },
    {
      "inputs": [
        {
          "internalType": "address",
          "name": "to",
          "type": "address"
        },
        {
          "internalType": "uint256",
          "name": "tokenId",
          "type": "uint256"
        }
      ],
      "name": "approve",
      "outputs": [],
      "stateMutability": "nonpayable",
      "type": "function"
    },
    {
      "inputs": [
        {
          "internalType": "address",
          "name": "owner",
          "type": "address"
        }
      ],
      "name": "balanceOf",
      "outputs": [
        {
          "internalType": "uint256",
          "name": "",
          "type": "uint256"
        }
      ],
      "stateMutability": "view",
      "type": "function"
    },
    {
      "inputs": [],
      "name": "currentTokenId",
      "outputs": [
        {
          "internalType": "uint256",
          "name": "",
          "type": "uint256"
        }
      ],
      "stateMutability": "view",
      "type": "function"
    },
    {
      "inputs": [
        {
          "internalType": "uint256",
          "name": "tokenId",
          "type": "uint256"
        }
      ],
      "name": "getApproved",
      "outputs": [
        {
          "internalType": "address",
          "name": "",
          "type": "address"
        }
      ],
      "stateMutability": "view",
      "type": "function"
    },
    {
      "inputs": [
        {
          "internalType": "uint256",
          "name": "",
          "type": "uint256"
        }
      ],
      "name": "identities",
      "outputs": [
        {
          "internalType": "string",
          "name": "name",
          "type": "string"
        },
        {
          "internalType": "string",
          "name": "dateOfBirth",
          "type": "string"
        },
        {
          "internalType": "enum IdentityNFT.Role",
          "name": "role",
          "type": "uint8"
        },
        {
          "internalType": "string",
          "name": "ipfsFileId",
          "type": "string"
        }
      ],
      "stateMutability": "view",
      "type": "function"
    },
    {
      "inputs": [
        {
          "internalType": "address",
          "name": "",
          "type": "address"
        }
      ],
      "name": "identityTokenByOwner",
      "outputs": [
        {
          "internalType": "uint256",
          "name": "",
          "type": "uint256"
        }
      ],
      "stateMutability": "view",
      "type": "function"
    },
    {
      "inputs": [
        {
          "internalType": "address",
          "name": "owner",
          "type": "address"
        },
        {
          "internalType": "address",
          "name": "operator",
          "type": "address"
        }
      ],
      "name": "isApprovedForAll",
      "outputs": [
        {
          "internalType": "bool",
          "name": "",
          "type": "bool"
        }
      ],
      "stateMutability": "view",
      "type": "function"
    },
    {
      "inputs": [
        {
          "internalType": "address",
          "name": "to",
          "type": "address"
        },
        {
          "internalType": "string",
          "name": "name",
          "type": "string"
        },
        {
          "internalType": "string",
          "name": "dateOfBirth",
          "type": "string"
        },
        {
          "internalType": "enum IdentityNFT.Role",
          "name": "role",
          "type": "uint8"
        },
        {
          "internalType": "string",
          "name": "ipfsFileId",
          "type": "string"
        }
      ],
      "name": "mintIdentity",
      "outputs": [
        {
          "internalType": "uint256",
          "name": "",
          "type": "uint256"
        }
      ],
      "stateMutability": "nonpayable",
      "type": "function"
    },
    {
      "inputs": [],
      "name": "name",
      "outputs": [
        {
          "internalType": "string",
          "name": "",
          "type": "string"
        }
      ],
      "stateMutability": "view",
      "type": "function"
    },
    {
      "inputs": [],
      "name": "owner",
      "outputs": [
        {
          "internalType": "address",
          "name": "",
          "type": "address"
        }
      ],
      "stateMutability": "view",
      "type": "function"
    },
    {
      "inputs": [
        {
          "internalType": "uint256",
          "name": "tokenId",
          "type": "uint256"
        }
      ],
      "name": "ownerOf",
      "outputs": [
        {
          "internalType": "address",
          "name": "",
          "type": "address"
        }
      ],
      "stateMutability": "view",
      "type": "function"
    },
    {
      "inputs": [],
      "name": "renounceOwnership",
      "outputs": [],
      "stateMutability": "nonpayable",
      "type": "function"
    },
    {
      "inputs": [
        {
          "internalType": "address",
          "name": "from",
          "type": "address"
        },
        {
          "internalType": "address",
          "name": "to",
          "type": "address"
        },
        {
          "internalType": "uint256",
          "name": "tokenId",
          "type": "uint256"
        }
      ],
      "name": "safeTransferFrom",
      "outputs": [],
      "stateMutability": "nonpayable",
      "type": "function"
    },
    {
      "inputs": [
        {
          "internalType": "address",
          "name": "from",
          "type": "address"
        },
        {
          "internalType": "address",
          "name": "to",
          "type": "address"
        },
        {
          "internalType": "uint256",
          "name": "tokenId",
          "type": "uint256"
        },
        {
          "internalType": "bytes",
          "name": "data",
          "type": "bytes"
        }
      ],
      "name": "safeTransferFrom",
      "outputs": [],
      "stateMutability": "nonpayable",
      "type": "function"
    },
    {
      "inputs": [
        {
          "internalType": "address",
          "name": "operator",
          "type": "address"
        },
        {
          "internalType": "bool",
          "name": "approved",
          "type": "bool"
        }
      ],
      "name": "setApprovalForAll",
      "outputs": [],
      "stateMutability": "nonpayable",
      "type": "function"
    },
    {
      "inputs": [
        {
          "internalType": "bytes4",
          "name": "interfaceId",
          "type": "bytes4"
        }
      ],
      "name": "supportsInterface",
      "outputs": [
        {
          "internalType": "bool",
          "name": "",
          "type": "bool"
        }
      ],
      "stateMutability": "view",
      "type": "function"
    },
    {
      "inputs": [],
      "name": "symbol",
      "outputs": [
        {
          "internalType": "string",
          "name": "",
          "type": "string"
        }
      ],
      "stateMutability": "view",
      "type": "function"
    },
    {
      "inputs": [
        {
          "internalType": "uint256",
          "name": "tokenId",
          "type": "uint256"
        }
      ],
      "name": "tokenURI",
      "outputs": [
        {
          "internalType": "string",
          "name": "",
          "type": "string"
        }
      ],
      "stateMutability": "view",
      "type": "function"
    },
    {
      "inputs": [
        {
          "internalType": "address",
          "name": "from",
          "type": "address"
        },
        {
          "internalType": "address",
          "name": "to",
          "type": "address"
        },
        {
          "internalType": "uint256",
          "name": "tokenId",
          "type": "uint256"
        }
      ],
      "name": "transferFrom",
      "outputs": [],
      "stateMutability": "nonpayable",
      "type": "function"
    },
    {
      "inputs": [
        {
          "internalType": "address",
          "name": "newOwner",
          "type": "address"
        }
      ],
      "name": "transferOwnership",
      "outputs": [],
      "stateMutability": "nonpayable",
      "type": "function"
    }
  ],
  "bytecode": "0x608060405234801561001057600080fd5b50336040518060400160405280601281526020017f494954446861727761644964656e7469747900000000000000000000000000008152506040518060400160405280600781526020017f494954442d494400000000000000000000000000000000000000000000000000815250816000908161008d9190610fc9565b50806001908161009d9190610fc9565b505050600073ffffffffffffffffffffffffffffffffffffffff168173ffffffffffffffffffffffffffffffffffffffff16036101125760006040517f1e4fbdf700000000000000000000000000000000000000000000000000000000815260040161010991906110dc565b60405180910390fd5b610121816101b560201b60201c565b506101af336040518060400160405280600581526020017f41646d696e0000000000000000000000000000000000000000000000000000008152506040518060400160405280600a81526020017f32322d30372d323030330000000000000000000000000000000000000000000081525060026040518060200160405280600081525061027b60201b60201c565b5061139b565b6000600660009054906101000a900473ffffffffffffffffffffffffffffffffffffffff16905081600660006101000a81548173ffffffffffffffffffffffffffffffffffffffff021916908373ffffffffffffffffffffffffffffffffffffffff1602179055508173ffffffffffffffffffffffffffffffffffffffff168173ffffffffffffffffffffffffffffffffffffffff167f8be0079c531659141344cd1fd0a4f28419497f9722a3daafe3b4186f6b6457e060405160405180910390a35050565b600061028b61047f60201b60201c565b6000600960008873ffffffffffffffffffffffffffffffffffffffff1673ffffffffffffffffffffffffffffffffffffffff168152602001908152602001600020541461030d576040517f08c379a00000000000000000000000000000000000000000000000000000000081526004016103049061117a565b60405180910390fd5b600060076000815461031e906111c9565b9190508190559050610336878261051860201b60201c565b60405180608001604052808781526020018681526020018560028111156103605761035f611211565b5b8152602001848152506008600083815260200190815260200160002060008201518160000190816103919190610fc9565b5060208201518160010190816103a79190610fc9565b5060408201518160020160006101000a81548160ff021916908360028111156103d3576103d2611211565b5b021790555060608201518160030190816103ed9190610fc9565b5090505080600960008973ffffffffffffffffffffffffffffffffffffffff1673ffffffffffffffffffffffffffffffffffffffff168152602001908152602001600020819055507fd1c4060d1d314231a5a8264e8619f9e2eedbb5907f74cbce1477eb0f1f18cf8f8188888760405161046a949392919061130b565b60405180910390a18091505095945050505050565b61048d61061760201b60201c565b73ffffffffffffffffffffffffffffffffffffffff166104b161061f60201b60201c565b73ffffffffffffffffffffffffffffffffffffffff1614610516576104da61061760201b60201c565b6040517f118cdaa700000000000000000000000000000000000000000000000000000000815260040161050d91906110dc565b60405180910390fd5b565b600073ffffffffffffffffffffffffffffffffffffffff168273ffffffffffffffffffffffffffffffffffffffff160361058a5760006040517f64a0ae9200000000000000000000000000000000000000000000000000000000815260040161058191906110dc565b60405180910390fd5b600061059e8383600061064960201b60201c565b9050600073ffffffffffffffffffffffffffffffffffffffff168173ffffffffffffffffffffffffffffffffffffffff16146106125760006040517f73c6ac6e00000000000000000000000000000000000000000000000000000000815260040161060991906110dc565b60405180910390fd5b505050565b600033905090565b6000600660009054906101000a900473ffffffffffffffffffffffffffffffffffffffff16905090565b60008061065b8461087560201b60201c565b9050600073ffffffffffffffffffffffffffffffffffffffff168373ffffffffffffffffffffffffffffffffffffffff16146106a3576106a28184866108b260201b60201c565b5b600073ffffffffffffffffffffffffffffffffffffffff168173ffffffffffffffffffffffffffffffffffffffff161461073a576106eb60008560008061097c60201b60201c565b6001600360008373ffffffffffffffffffffffffffffffffffffffff1673ffffffffffffffffffffffffffffffffffffffff168152602001908152602001600020600082825403925050819055505b600073ffffffffffffffffffffffffffffffffffffffff168573ffffffffffffffffffffffffffffffffffffffff16146107bd576001600360008773ffffffffffffffffffffffffffffffffffffffff1673ffffffffffffffffffffffffffffffffffffffff168152602001908152602001600020600082825401925050819055505b846002600086815260200190815260200160002060006101000a81548173ffffffffffffffffffffffffffffffffffffffff021916908373ffffffffffffffffffffffffffffffffffffffff160217905550838573ffffffffffffffffffffffffffffffffffffffff168273ffffffffffffffffffffffffffffffffffffffff167fddf252ad1be2c89b69c2b068fc378daa952ba7f163c4a11628f55a4df523b3ef60405160405180910390a4809150509392505050565b60006002600083815260200190815260200160002060009054906101000a900473ffffffffffffffffffffffffffffffffffffffff169050919050565b6108c3838383610b4d60201b60201c565b61097757600073ffffffffffffffffffffffffffffffffffffffff168373ffffffffffffffffffffffffffffffffffffffff160361093857806040517f7e27328900000000000000000000000000000000000000000000000000000000815260040161092f9190611357565b60405180910390fd5b81816040517f177e802f00000000000000000000000000000000000000000000000000000000815260040161096e929190611372565b60405180910390fd5b505050565b80806109b55750600073ffffffffffffffffffffffffffffffffffffffff168273ffffffffffffffffffffffffffffffffffffffff1614155b15610af55760006109cb84610c1a60201b60201c565b9050600073ffffffffffffffffffffffffffffffffffffffff168373ffffffffffffffffffffffffffffffffffffffff1614158015610a3657508273ffffffffffffffffffffffffffffffffffffffff168173ffffffffffffffffffffffffffffffffffffffff1614155b8015610a4f5750610a4d8184610ca860201b60201c565b155b15610a9157826040517fa9fbf51f000000000000000000000000000000000000000000000000000000008152600401610a8891906110dc565b60405180910390fd5b8115610af357838573ffffffffffffffffffffffffffffffffffffffff168273ffffffffffffffffffffffffffffffffffffffff167f8c5be1e5ebec7d5bd14f71427d1e84f3dd0314c0f7b2291e5b200ac8c7c3b92560405160405180910390a45b505b836004600085815260200190815260200160002060006101000a81548173ffffffffffffffffffffffffffffffffffffffff021916908373ffffffffffffffffffffffffffffffffffffffff16021790555050505050565b60008073ffffffffffffffffffffffffffffffffffffffff168373ffffffffffffffffffffffffffffffffffffffff1614158015610c1157508273ffffffffffffffffffffffffffffffffffffffff168473ffffffffffffffffffffffffffffffffffffffff161480610bcc5750610bcb8484610ca860201b60201c565b5b80610c1057508273ffffffffffffffffffffffffffffffffffffffff16610bf883610d3c60201b60201c565b73ffffffffffffffffffffffffffffffffffffffff16145b5b90509392505050565b600080610c2c8361087560201b60201c565b9050600073ffffffffffffffffffffffffffffffffffffffff168173ffffffffffffffffffffffffffffffffffffffff1603610c9f57826040517f7e273289000000000000000000000000000000000000000000000000000000008152600401610c969190611357565b60405180910390fd5b80915050919050565b6000600560008473ffffffffffffffffffffffffffffffffffffffff1673ffffffffffffffffffffffffffffffffffffffff16815260200190815260200160002060008373ffffffffffffffffffffffffffffffffffffffff1673ffffffffffffffffffffffffffffffffffffffff16815260200190815260200160002060009054906101000a900460ff16905092915050565b60006004600083815260200190815260200160002060009054906101000a900473ffffffffffffffffffffffffffffffffffffffff169050919050565b600081519050919050565b7f4e487b7100000000000000000000000000000000000000000000000000000000600052604160045260246000fd5b7f4e487b7100000000000000000000000000000000000000000000000000000000600052602260045260246000fd5b60006002820490506001821680610dfa57607f821691505b602082108103610e0d57610e0c610db3565b5b50919050565b60008190508160005260206000209050919050565b60006020601f8301049050919050565b600082821b905092915050565b600060088302610e757fffffffffffffffffffffffffffffffffffffffffffffffffffffffffffffffff82610e38565b610e7f8683610e38565b95508019841693508086168417925050509392505050565b6000819050919050565b6000819050919050565b6000610ec6610ec1610ebc84610e97565b610ea1565b610e97565b9050919050565b6000819050919050565b610ee083610eab565b610ef4610eec82610ecd565b848454610e45565b825550505050565b600090565b610f09610efc565b610f14818484610ed7565b505050565b5b81811015610f3857610f2d600082610f01565b600181019050610f1a565b5050565b601f821115610f7d57610f4e81610e13565b610f5784610e28565b81016020851015610f66578190505b610f7a610f7285610e28565b830182610f19565b50505b505050565b600082821c905092915050565b6000610fa060001984600802610f82565b1980831691505092915050565b6000610fb98383610f8f565b9150826002028217905092915050565b610fd282610d79565b67ffffffffffffffff811115610feb57610fea610d84565b5b610ff58254610de2565b611000828285610f3c565b600060209050601f8311600181146110335760008415611021578287015190505b61102b8582610fad565b865550611093565b601f19841661104186610e13565b60005b8281101561106957848901518255600182019150602085019450602081019050611044565b868310156110865784890151611082601f891682610f8f565b8355505b6001600288020188555050505b505050505050565b600073ffffffffffffffffffffffffffffffffffffffff82169050919050565b60006110c68261109b565b9050919050565b6110d6816110bb565b82525050565b60006020820190506110f160008301846110cd565b92915050565b600082825260208201905092915050565b7f4964656e74697479204e465420616c72656164792065786973747320666f722060008201527f7468697320616464726573730000000000000000000000000000000000000000602082015250565b6000611164602c836110f7565b915061116f82611108565b604082019050919050565b6000602082019050818103600083015261119381611157565b9050919050565b7f4e487b7100000000000000000000000000000000000000000000000000000000600052601160045260246000fd5b60006111d482610e97565b91507fffffffffffffffffffffffffffffffffffffffffffffffffffffffffffffffff82036112065761120561119a565b5b600182019050919050565b7f4e487b7100000000000000000000000000000000000000000000000000000000600052602160045260246000fd5b61124981610e97565b82525050565b60005b8381101561126d578082015181840152602081019050611252565b60008484015250505050565b6000601f19601f8301169050919050565b600061129582610d79565b61129f81856110f7565b93506112af81856020860161124f565b6112b881611279565b840191505092915050565b600381106112d4576112d3611211565b5b50565b60008190506112e5826112c3565b919050565b60006112f5826112d7565b9050919050565b611305816112ea565b82525050565b60006080820190506113206000830187611240565b61132d60208301866110cd565b818103604083015261133f818561128a565b905061134e60608301846112fc565b95945050505050565b600060208201905061136c6000830184611240565b92915050565b600060408201905061138760008301856110cd565b6113946020830184611240565b9392505050565b612a6b806113aa6000396000f3fe608060405234801561001057600080fd5b506004361061012b5760003560e01c80638da5cb5b116100ad578063b88d4fde11610071578063b88d4fde14610342578063c87b56dd1461035e578063e985e9c51461038e578063eaaf77e6146103be578063f2fde38b146103f15761012b565b80638da5cb5b1461028a57806391f1075d146102a857806394bd9eb3146102d857806395d89b4114610308578063a22cb465146103265761012b565b806323b872dd116100f457806323b872dd146101e857806342842e0e146102045780636352211e1461022057806370a0823114610250578063715018a6146102805761012b565b80629a9b7b1461013057806301ffc9a71461014e57806306fdde031461017e578063081812fc1461019c578063095ea7b3146101cc575b600080fd5b61013861040d565b6040516101459190611bf4565b60405180910390f35b61016860048036038101906101639190611c7b565b610413565b6040516101759190611cc3565b60405180910390f35b6101866104f5565b6040516101939190611d6e565b60405180910390f35b6101b660048036038101906101b19190611dbc565b610587565b6040516101c39190611e2a565b60405180910390f35b6101e660048036038101906101e19190611e71565b6105a3565b005b61020260048036038101906101fd9190611eb1565b6105b9565b005b61021e60048036038101906102199190611eb1565b6105f4565b005b61023a60048036038101906102359190611dbc565b610614565b6040516102479190611e2a565b60405180910390f35b61026a60048036038101906102659190611f04565b610626565b6040516102779190611bf4565b60405180910390f35b6102886106e0565b005b6102926106f4565b60405161029f9190611e2a565b60405180910390f35b6102c260048036038101906102bd9190611f04565b61071e565b6040516102cf9190611bf4565b60405180910390f35b6102f260048036038101906102ed919061208b565b610736565b6040516102ff9190611bf4565b60405180910390f35b61031061092e565b60405161031d9190611d6e565b60405180910390f35b610340600480360381019061033b9190612186565b6109c0565b005b61035c60048036038101906103579190612267565b6109d6565b005b61037860048036038101906103739190611dbc565b6109fb565b6040516103859190611d6e565b60405180910390f35b6103a860048036038101906103a391906122ea565b610a64565b6040516103b59190611cc3565b60405180910390f35b6103d860048036038101906103d39190611dbc565b610af8565b6040516103e894939291906123a1565b60405180910390f35b61040b60048036038101906104069190611f04565b610ccd565b005b60075481565b60007f80ac58cd000000000000000000000000000000000000000000000000000000007bffffffffffffffffffffffffffffffffffffffffffffffffffffffff1916827bffffffffffffffffffffffffffffffffffffffffffffffffffffffff191614806104de57507f5b5e139f000000000000000000000000000000000000000000000000000000007bffffffffffffffffffffffffffffffffffffffffffffffffffffffff1916827bffffffffffffffffffffffffffffffffffffffffffffffffffffffff1916145b806104ee57506104ed82610d53565b5b9050919050565b6060600080546105049061242a565b80601f01602080910402602001604051908101604052809291908181526020018280546105309061242a565b801561057d5780601f106105525761010080835404028352916020019161057d565b820191906000526020600020905b81548152906001019060200180831161056057829003601f168201915b5050505050905090565b600061059282610dbd565b5061059c82610e45565b9050919050565b6105b582826105b0610e82565b610e8a565b5050565b6040517f08c379a00000000000000000000000000000000000000000000000000000000081526004016105eb906124a7565b60405180910390fd5b61060f838383604051806020016040528060008152506109d6565b505050565b600061061f82610dbd565b9050919050565b60008073ffffffffffffffffffffffffffffffffffffffff168273ffffffffffffffffffffffffffffffffffffffff16036106995760006040517f89c62b640000000000000000000000000000000000000000000000000000000081526004016106909190611e2a565b60405180910390fd5b600360008373ffffffffffffffffffffffffffffffffffffffff1673ffffffffffffffffffffffffffffffffffffffff168152602001908152602001600020549050919050565b6106e8610e9c565b6106f26000610f23565b565b6000600660009054906101000a900473ffffffffffffffffffffffffffffffffffffffff16905090565b60096020528060005260406000206000915090505481565b6000610740610e9c565b6000600960008873ffffffffffffffffffffffffffffffffffffffff1673ffffffffffffffffffffffffffffffffffffffff16815260200190815260200160002054146107c2576040517f08c379a00000000000000000000000000000000000000000000000000000000081526004016107b990612539565b60405180910390fd5b60006007600081546107d390612588565b91905081905590506107e58782610fe9565b604051806080016040528087815260200186815260200185600281111561080f5761080e61232a565b5b815260200184815250600860008381526020019081526020016000206000820151816000019081610840919061277c565b506020820151816001019081610856919061277c565b5060408201518160020160006101000a81548160ff021916908360028111156108825761088161232a565b5b0217905550606082015181600301908161089c919061277c565b5090505080600960008973ffffffffffffffffffffffffffffffffffffffff1673ffffffffffffffffffffffffffffffffffffffff168152602001908152602001600020819055507fd1c4060d1d314231a5a8264e8619f9e2eedbb5907f74cbce1477eb0f1f18cf8f81888887604051610919949392919061284e565b60405180910390a18091505095945050505050565b60606001805461093d9061242a565b80601f01602080910402602001604051908101604052809291908181526020018280546109699061242a565b80156109b65780601f1061098b576101008083540402835291602001916109b6565b820191906000526020600020905b81548152906001019060200180831161099957829003601f168201915b5050505050905090565b6109d26109cb610e82565b83836110e2565b5050565b6109e18484846105b9565b6109f56109ec610e82565b85858585611251565b50505050565b6060610a0682610dbd565b506000610a11611402565b90506000815111610a315760405180602001604052806000815250610a5c565b80610a3b84611419565b604051602001610a4c9291906128d6565b6040516020818303038152906040525b915050919050565b6000600560008473ffffffffffffffffffffffffffffffffffffffff1673ffffffffffffffffffffffffffffffffffffffff16815260200190815260200160002060008373ffffffffffffffffffffffffffffffffffffffff1673ffffffffffffffffffffffffffffffffffffffff16815260200190815260200160002060009054906101000a900460ff16905092915050565b6008602052806000526040600020600091509050806000018054610b1b9061242a565b80601f0160208091040260200160405190810160405280929190818152602001828054610b479061242a565b8015610b945780601f10610b6957610100808354040283529160200191610b94565b820191906000526020600020905b815481529060010190602001808311610b7757829003601f168201915b505050505090806001018054610ba99061242a565b80601f0160208091040260200160405190810160405280929190818152602001828054610bd59061242a565b8015610c225780601f10610bf757610100808354040283529160200191610c22565b820191906000526020600020905b815481529060010190602001808311610c0557829003601f168201915b5050505050908060020160009054906101000a900460ff1690806003018054610c4a9061242a565b80601f0160208091040260200160405190810160405280929190818152602001828054610c769061242a565b8015610cc35780601f10610c9857610100808354040283529160200191610cc3565b820191906000526020600020905b815481529060010190602001808311610ca657829003601f168201915b5050505050905084565b610cd5610e9c565b600073ffffffffffffffffffffffffffffffffffffffff168173ffffffffffffffffffffffffffffffffffffffff1603610d475760006040517f1e4fbdf7000000000000000000000000000000000000000000000000000000008152600401610d3e9190611e2a565b60405180910390fd5b610d5081610f23565b50565b60007f01ffc9a7000000000000000000000000000000000000000000000000000000007bffffffffffffffffffffffffffffffffffffffffffffffffffffffff1916827bffffffffffffffffffffffffffffffffffffffffffffffffffffffff1916149050919050565b600080610dc9836114e7565b9050600073ffffffffffffffffffffffffffffffffffffffff168173ffffffffffffffffffffffffffffffffffffffff1603610e3c57826040517f7e273289000000000000000000000000000000000000000000000000000000008152600401610e339190611bf4565b60405180910390fd5b80915050919050565b60006004600083815260200190815260200160002060009054906101000a900473ffffffffffffffffffffffffffffffffffffffff169050919050565b600033905090565b610e978383836001611524565b505050565b610ea4610e82565b73ffffffffffffffffffffffffffffffffffffffff16610ec26106f4565b73ffffffffffffffffffffffffffffffffffffffff1614610f2157610ee5610e82565b6040517f118cdaa7000000000000000000000000000000000000000000000000000000008152600401610f189190611e2a565b60405180910390fd5b565b6000600660009054906101000a900473ffffffffffffffffffffffffffffffffffffffff16905081600660006101000a81548173ffffffffffffffffffffffffffffffffffffffff021916908373ffffffffffffffffffffffffffffffffffffffff1602179055508173ffffffffffffffffffffffffffffffffffffffff168173ffffffffffffffffffffffffffffffffffffffff167f8be0079c531659141344cd1fd0a4f28419497f9722a3daafe3b4186f6b6457e060405160405180910390a35050565b600073ffffffffffffffffffffffffffffffffffffffff168273ffffffffffffffffffffffffffffffffffffffff160361105b5760006040517f64a0ae920000000000000000000000000000000000000000000000000000000081526004016110529190611e2a565b60405180910390fd5b6000611069838360006116e9565b9050600073ffffffffffffffffffffffffffffffffffffffff168173ffffffffffffffffffffffffffffffffffffffff16146110dd5760006040517f73c6ac6e0000000000000000000000000000000000000000000000000000000081526004016110d49190611e2a565b60405180910390fd5b505050565b600073ffffffffffffffffffffffffffffffffffffffff168273ffffffffffffffffffffffffffffffffffffffff160361115357816040517f5b08ba1800000000000000000000000000000000000000000000000000000000815260040161114a9190611e2a565b60405180910390fd5b80600560008573ffffffffffffffffffffffffffffffffffffffff1673ffffffffffffffffffffffffffffffffffffffff16815260200190815260200160002060008473ffffffffffffffffffffffffffffffffffffffff1673ffffffffffffffffffffffffffffffffffffffff16815260200190815260200160002060006101000a81548160ff0219169083151502179055508173ffffffffffffffffffffffffffffffffffffffff168373ffffffffffffffffffffffffffffffffffffffff167f17307eab39ab6107e8899845ad3d59bd9653f200f220920489ca2b5937696c31836040516112449190611cc3565b60405180910390a3505050565b60008373ffffffffffffffffffffffffffffffffffffffff163b11156113fb578273ffffffffffffffffffffffffffffffffffffffff1663150b7a02868685856040518563ffffffff1660e01b81526004016112b0949392919061294f565b6020604051808303816000875af19250505080156112ec57506040513d601f19601f820116820180604052508101906112e991906129b0565b60015b611370573d806000811461131c576040519150601f19603f3d011682016040523d82523d6000602084013e611321565b606091505b50600081510361136857836040517f64a0ae9200000000000000000000000000000000000000000000000000000000815260040161135f9190611e2a565b60405180910390fd5b805181602001fd5b63150b7a0260e01b7bffffffffffffffffffffffffffffffffffffffffffffffffffffffff1916817bffffffffffffffffffffffffffffffffffffffffffffffffffffffff1916146113f957836040517f64a0ae920000000000000000000000000000000000000000000000000000000081526004016113f09190611e2a565b60405180910390fd5b505b5050505050565b606060405180602001604052806000815250905090565b60606000600161142884611903565b01905060008167ffffffffffffffff81111561144757611446611f3b565b5b6040519080825280601f01601f1916602001820160405280156114795781602001600182028036833780820191505090505b509050600082602001820190505b6001156114dc578080600190039150507f3031323334353637383961626364656600000000000000000000000000000000600a86061a8153600a85816114d0576114cf6129dd565b5b04945060008503611487575b819350505050919050565b60006002600083815260200190815260200160002060009054906101000a900473ffffffffffffffffffffffffffffffffffffffff169050919050565b808061155d5750600073ffffffffffffffffffffffffffffffffffffffff168273ffffffffffffffffffffffffffffffffffffffff1614155b1561169157600061156d84610dbd565b9050600073ffffffffffffffffffffffffffffffffffffffff168373ffffffffffffffffffffffffffffffffffffffff16141580156115d857508273ffffffffffffffffffffffffffffffffffffffff168173ffffffffffffffffffffffffffffffffffffffff1614155b80156115eb57506115e98184610a64565b155b1561162d57826040517fa9fbf51f0000000000000000000000000000000000000000000000000000000081526004016116249190611e2a565b60405180910390fd5b811561168f57838573ffffffffffffffffffffffffffffffffffffffff168273ffffffffffffffffffffffffffffffffffffffff167f8c5be1e5ebec7d5bd14f71427d1e84f3dd0314c0f7b2291e5b200ac8c7c3b92560405160405180910390a45b505b836004600085815260200190815260200160002060006101000a81548173ffffffffffffffffffffffffffffffffffffffff021916908373ffffffffffffffffffffffffffffffffffffffff16021790555050505050565b6000806116f5846114e7565b9050600073ffffffffffffffffffffffffffffffffffffffff168373ffffffffffffffffffffffffffffffffffffffff161461173757611736818486611a56565b5b600073ffffffffffffffffffffffffffffffffffffffff168173ffffffffffffffffffffffffffffffffffffffff16146117c857611779600085600080611524565b6001600360008373ffffffffffffffffffffffffffffffffffffffff1673ffffffffffffffffffffffffffffffffffffffff168152602001908152602001600020600082825403925050819055505b600073ffffffffffffffffffffffffffffffffffffffff168573ffffffffffffffffffffffffffffffffffffffff161461184b576001600360008773ffffffffffffffffffffffffffffffffffffffff1673ffffffffffffffffffffffffffffffffffffffff168152602001908152602001600020600082825401925050819055505b846002600086815260200190815260200160002060006101000a81548173ffffffffffffffffffffffffffffffffffffffff021916908373ffffffffffffffffffffffffffffffffffffffff160217905550838573ffffffffffffffffffffffffffffffffffffffff168273ffffffffffffffffffffffffffffffffffffffff167fddf252ad1be2c89b69c2b068fc378daa952ba7f163c4a11628f55a4df523b3ef60405160405180910390a4809150509392505050565b600080600090507a184f03e93ff9f4daa797ed6e38ed64bf6a1f0100000000000000008310611961577a184f03e93ff9f4daa797ed6e38ed64bf6a1f0100000000000000008381611957576119566129dd565b5b0492506040810190505b6d04ee2d6d415b85acef8100000000831061199e576d04ee2d6d415b85acef81000000008381611994576119936129dd565b5b0492506020810190505b662386f26fc1000083106119cd57662386f26fc1000083816119c3576119c26129dd565b5b0492506010810190505b6305f5e10083106119f6576305f5e10083816119ec576119eb6129dd565b5b0492506008810190505b6127108310611a1b576127108381611a1157611a106129dd565b5b0492506004810190505b60648310611a3e5760648381611a3457611a336129dd565b5b0492506002810190505b600a8310611a4d576001810190505b80915050919050565b611a61838383611b1a565b611b1557600073ffffffffffffffffffffffffffffffffffffffff168373ffffffffffffffffffffffffffffffffffffffff1603611ad657806040517f7e273289000000000000000000000000000000000000000000000000000000008152600401611acd9190611bf4565b60405180910390fd5b81816040517f177e802f000000000000000000000000000000000000000000000000000000008152600401611b0c929190612a0c565b60405180910390fd5b505050565b60008073ffffffffffffffffffffffffffffffffffffffff168373ffffffffffffffffffffffffffffffffffffffff1614158015611bd257508273ffffffffffffffffffffffffffffffffffffffff168473ffffffffffffffffffffffffffffffffffffffff161480611b935750611b928484610a64565b5b80611bd157508273ffffffffffffffffffffffffffffffffffffffff16611bb983610e45565b73ffffffffffffffffffffffffffffffffffffffff16145b5b90509392505050565b6000819050919050565b611bee81611bdb565b82525050565b6000602082019050611c096000830184611be5565b92915050565b6000604051905090565b600080fd5b600080fd5b60007fffffffff0000000000000000000000000000000000000000000000000000000082169050919050565b611c5881611c23565b8114611c6357600080fd5b50565b600081359050611c7581611c4f565b92915050565b600060208284031215611c9157611c90611c19565b5b6000611c9f84828501611c66565b91505092915050565b60008115159050919050565b611cbd81611ca8565b82525050565b6000602082019050611cd86000830184611cb4565b92915050565b600081519050919050565b600082825260208201905092915050565b60005b83811015611d18578082015181840152602081019050611cfd565b60008484015250505050565b6000601f19601f8301169050919050565b6000611d4082611cde565b611d4a8185611ce9565b9350611d5a818560208601611cfa565b611d6381611d24565b840191505092915050565b60006020820190508181036000830152611d888184611d35565b905092915050565b611d9981611bdb565b8114611da457600080fd5b50565b600081359050611db681611d90565b92915050565b600060208284031215611dd257611dd1611c19565b5b6000611de084828501611da7565b91505092915050565b600073ffffffffffffffffffffffffffffffffffffffff82169050919050565b6000611e1482611de9565b9050919050565b611e2481611e09565b82525050565b6000602082019050611e3f6000830184611e1b565b92915050565b611e4e81611e09565b8114611e5957600080fd5b50565b600081359050611e6b81611e45565b92915050565b60008060408385031215611e8857611e87611c19565b5b6000611e9685828601611e5c565b9250506020611ea785828601611da7565b9150509250929050565b600080600060608486031215611eca57611ec9611c19565b5b6000611ed886828701611e5c565b9350506020611ee986828701611e5c565b9250506040611efa86828701611da7565b9150509250925092565b600060208284031215611f1a57611f19611c19565b5b6000611f2884828501611e5c565b91505092915050565b600080fd5b600080fd5b7f4e487b7100000000000000000000000000000000000000000000000000000000600052604160045260246000fd5b611f7382611d24565b810181811067ffffffffffffffff82111715611f9257611f91611f3b565b5b80604052505050565b6000611fa5611c0f565b9050611fb18282611f6a565b919050565b600067ffffffffffffffff821115611fd157611fd0611f3b565b5b611fda82611d24565b9050602081019050919050565b82818337600083830152505050565b600061200961200484611fb6565b611f9b565b90508281526020810184848401111561202557612024611f36565b5b612030848285611fe7565b509392505050565b600082601f83011261204d5761204c611f31565b5b813561205d848260208601611ff6565b91505092915050565b6003811061207357600080fd5b50565b60008135905061208581612066565b92915050565b600080600080600060a086880312156120a7576120a6611c19565b5b60006120b588828901611e5c565b955050602086013567ffffffffffffffff8111156120d6576120d5611c1e565b5b6120e288828901612038565b945050604086013567ffffffffffffffff81111561210357612102611c1e565b5b61210f88828901612038565b935050606061212088828901612076565b925050608086013567ffffffffffffffff81111561214157612140611c1e565b5b61214d88828901612038565b9150509295509295909350565b61216381611ca8565b811461216e57600080fd5b50565b6000813590506121808161215a565b92915050565b6000806040838503121561219d5761219c611c19565b5b60006121ab85828601611e5c565b92505060206121bc85828601612171565b9150509250929050565b600067ffffffffffffffff8211156121e1576121e0611f3b565b5b6121ea82611d24565b9050602081019050919050565b600061220a612205846121c6565b611f9b565b90508281526020810184848401111561222657612225611f36565b5b612231848285611fe7565b509392505050565b600082601f83011261224e5761224d611f31565b5b813561225e8482602086016121f7565b91505092915050565b6000806000806080858703121561228157612280611c19565b5b600061228f87828801611e5c565b94505060206122a087828801611e5c565b93505060406122b187828801611da7565b925050606085013567ffffffffffffffff8111156122d2576122d1611c1e565b5b6122de87828801612239565b91505092959194509250565b6000806040838503121561230157612300611c19565b5b600061230f85828601611e5c565b925050602061232085828601611e5c565b9150509250929050565b7f4e487b7100000000000000000000000000000000000000000000000000000000600052602160045260246000fd5b6003811061236a5761236961232a565b5b50565b600081905061237b82612359565b919050565b600061238b8261236d565b9050919050565b61239b81612380565b82525050565b600060808201905081810360008301526123bb8187611d35565b905081810360208301526123cf8186611d35565b90506123de6040830185612392565b81810360608301526123f08184611d35565b905095945050505050565b7f4e487b7100000000000000000000000000000000000000000000000000000000600052602260045260246000fd5b6000600282049050600182168061244257607f821691505b602082108103612455576124546123fb565b5b50919050565b7f5472616e7366657273206172652064697361626c656400000000000000000000600082015250565b6000612491601683611ce9565b915061249c8261245b565b602082019050919050565b600060208201905081810360008301526124c081612484565b9050919050565b7f4964656e74697479204e465420616c72656164792065786973747320666f722060008201527f7468697320616464726573730000000000000000000000000000000000000000602082015250565b6000612523602c83611ce9565b915061252e826124c7565b604082019050919050565b6000602082019050818103600083015261255281612516565b9050919050565b7f4e487b7100000000000000000000000000000000000000000000000000000000600052601160045260246000fd5b600061259382611bdb565b91507fffffffffffffffffffffffffffffffffffffffffffffffffffffffffffffffff82036125c5576125c4612559565b5b600182019050919050565b60008190508160005260206000209050919050565b60006020601f8301049050919050565b600082821b905092915050565b6000600883026126327fffffffffffffffffffffffffffffffffffffffffffffffffffffffffffffffff826125f5565b61263c86836125f5565b95508019841693508086168417925050509392505050565b6000819050919050565b600061267961267461266f84611bdb565b612654565b611bdb565b9050919050565b6000819050919050565b6126938361265e565b6126a761269f82612680565b848454612602565b825550505050565b600090565b6126bc6126af565b6126c781848461268a565b505050565b5b818110156126eb576126e06000826126b4565b6001810190506126cd565b5050565b601f82111561273057612701816125d0565b61270a846125e5565b81016020851015612719578190505b61272d612725856125e5565b8301826126cc565b50505b505050565b600082821c905092915050565b600061275360001984600802612735565b1980831691505092915050565b600061276c8383612742565b9150826002028217905092915050565b61278582611cde565b67ffffffffffffffff81111561279e5761279d611f3b565b5b6127a8825461242a565b6127b38282856126ef565b600060209050601f8311600181146127e657600084156127d4578287015190505b6127de8582612760565b865550612846565b601f1984166127f4866125d0565b60005b8281101561281c578489015182556001820191506020850194506020810190506127f7565b868310156128395784890151612835601f891682612742565b8355505b6001600288020188555050505b505050505050565b60006080820190506128636000830187611be5565b6128706020830186611e1b565b81810360408301526128828185611d35565b90506128916060830184612392565b95945050505050565b600081905092915050565b60006128b082611cde565b6128ba818561289a565b93506128ca818560208601611cfa565b80840191505092915050565b60006128e282856128a5565b91506128ee82846128a5565b91508190509392505050565b600081519050919050565b600082825260208201905092915050565b6000612921826128fa565b61292b8185612905565b935061293b818560208601611cfa565b61294481611d24565b840191505092915050565b60006080820190506129646000830187611e1b565b6129716020830186611e1b565b61297e6040830185611be5565b81810360608301526129908184612916565b905095945050505050565b6000815190506129aa81611c4f565b92915050565b6000602082840312156129c6576129c5611c19565b5b60006129d48482850161299b565b91505092915050565b7f4e487b7100000000000000000000000000000000000000000000000000000000600052601260045260246000fd5b6000604082019050612a216000830185611e1b565b612a2e6020830184611be5565b939250505056fea26469706673582212200c38ef6dc515f4d6914a9f9486eb93b09d3dcd0705e1d2fbdec926b21d32fd0464736f6c634300081c0033",
  "linkReferences": {},
  "deployedLinkReferences": {}
}