{
  "_format": "hh-sol-artifact-1",
  "contractName": "AmenityAccess",
  "sourceName": "contracts/AmenityAccess.sol",
  "abi": [
    {
      "inputs": [
        {
          "internalType": "address",
          "name": "_identityNFTAddress",
          "type": "address"
        }
      ],
      "stateMutability": "nonpayable",
      "type": "constructor"
    },
    {
      "inputs": [
        {
          "internalType": "address",
          "name": "owner",
          "type": "address"
        }
      ],
      "name": "OwnableInvalidOwner",
      "type": "error"
    },
    {
      "inputs": [
        {
          "internalType": "address",
          "name": "account",
          "type": "address"
        }
      ],
      "name": "OwnableUnauthorizedAccount",
      "type": "error"
    },
    {
      "anonymous": false,
      "inputs": [
        {
          "indexed": false,
          "internalType": "address",
          "name": "user",
          "type": "address"
        },
        {
          "indexed": false,
          "internalType": "uint256",
          "name": "amenityId",
          "type": "uint256"
        },
        {
          "indexed": false,
          "internalType": "bool",
          "name": "success",
          "type": "bool"
        }
      ],
      "name": "AccessAttempt",
      "type": "event"
    },
    {
      "anonymous": false,
      "inputs": [
        {
          "indexed": false,
          "internalType": "uint256",
          "name": "amenityId",
          "type": "uint256"
        },
        {
          "indexed": false,
          "internalType": "string",
          "name": "amenityName",
          "type": "string"
        }
      ],
      "name": "AmenityAdded",
      "type": "event"
    },
    {
      "anonymous": false,
      "inputs": [
        {
          "indexed": true,
          "internalType": "address",
          "name": "previousOwner",
          "type": "address"
        },
        {
          "indexed": true,
          "internalType": "address",
          "name": "newOwner",
          "type": "address"
        }
      ],
      "name": "OwnershipTransferred",
      "type": "event"
    },
    {
      "inputs": [
        {
          "internalType": "uint256",
          "name": "amenityId",
          "type": "uint256"
        }
      ],
      "name": "accessAmenity",
      "outputs": [],
      "stateMutability": "nonpayable",
      "type": "function"
    },
    {
      "inputs": [
        {
          "internalType": "string",
          "name": "amenityName",
          "type": "string"
        }
      ],
      "name": "addAmenity",
      "outputs": [],
      "stateMutability": "nonpayable",
      "type": "function"
    },
    {
      "inputs": [
        {
          "internalType": "uint256",
          "name": "",
          "type": "uint256"
        }
      ],
      "name": "amenities",
      "outputs": [
        {
          "internalType": "string",
          "name": "",
          "type": "string"
        }
      ],
      "stateMutability": "view",
      "type": "function"
    },
    {
      "inputs": [],
      "name": "amenityCounter",
      "outputs": [
        {
          "internalType": "uint256",
          "name": "",
          "type": "uint256"
        }
      ],
      "stateMutability": "view",
      "type": "function"
    },
    {
      "inputs": [],
      "name": "getAllAmenities",
      "outputs": [
        {
          "internalType": "uint256[]",
          "name": "",
          "type": "uint256[]"
        },
        {
          "internalType": "string[]",
          "name": "",
          "type": "string[]"
        }
      ],
      "stateMutability": "view",
      "type": "function"
    },
    {
      "inputs": [],
      "name": "getIDToken",
      "outputs": [
        {
          "internalType": "uint256",
          "name": "",
          "type": "uint256"
        }
      ],
      "stateMutability": "view",
      "type": "function"
    },
    {
      "inputs": [
        {
          "internalType": "uint256",
          "name": "amenityId",
          "type": "uint256"
        }
      ],
      "name": "hasAccess",
      "outputs": [
        {
          "internalType": "bool",
          "name": "",
          "type": "bool"
        }
      ],
      "stateMutability": "view",
      "type": "function"
    },
    {
      "inputs": [],
      "name": "identityNFT",
      "outputs": [
        {
          "internalType": "contract IIdentityNFT",
          "name": "",
          "type": "address"
        }
      ],
      "stateMutability": "view",
      "type": "function"
    },
    {
      "inputs": [],
      "name": "owner",
      "outputs": [
        {
          "internalType": "address",
          "name": "",
          "type": "address"
        }
      ],
      "stateMutability": "view",
      "type": "function"
    },
    {
      "inputs": [],
      "name": "renounceOwnership",
      "outputs": [],
      "stateMutability": "nonpayable",
      "type": "function"
    },
    {
      "inputs": [
        {
          "internalType": "address",
          "name": "newOwner",
          "type": "address"
        }
      ],
      "name": "transferOwnership",
      "outputs": [],
      "stateMutability": "nonpayable",
      "type": "function"
    }
  ],
  "bytecode": "0x608060405234801561001057600080fd5b506040516116fe3803806116fe83398181016040528101906100329190610223565b33600073ffffffffffffffffffffffffffffffffffffffff168173ffffffffffffffffffffffffffffffffffffffff16036100a55760006040517f1e4fbdf700000000000000000000000000000000000000000000000000000000815260040161009c919061025f565b60405180910390fd5b6100b4816100fc60201b60201c565b5080600160006101000a81548173ffffffffffffffffffffffffffffffffffffffff021916908373ffffffffffffffffffffffffffffffffffffffff1602179055505061027a565b60008060009054906101000a900473ffffffffffffffffffffffffffffffffffffffff169050816000806101000a81548173ffffffffffffffffffffffffffffffffffffffff021916908373ffffffffffffffffffffffffffffffffffffffff1602179055508173ffffffffffffffffffffffffffffffffffffffff168173ffffffffffffffffffffffffffffffffffffffff167f8be0079c531659141344cd1fd0a4f28419497f9722a3daafe3b4186f6b6457e060405160405180910390a35050565b600080fd5b600073ffffffffffffffffffffffffffffffffffffffff82169050919050565b60006101f0826101c5565b9050919050565b610200816101e5565b811461020b57600080fd5b50565b60008151905061021d816101f7565b92915050565b600060208284031215610239576102386101c0565b5b60006102478482850161020e565b91505092915050565b610259816101e5565b82525050565b60006020820190506102746000830184610250565b92915050565b611475806102896000396000f3fe608060405234801561001057600080fd5b50600436106100a95760003560e01c80638da5cb5b116100715780638da5cb5b14610141578063a86e32231461015f578063ad4b677d1461017b578063c899c5d614610199578063ea06abce146101c9578063f2fde38b146101e7576100a9565b8063310c7901146100ae5780633132ddfe146100cd578063356f2143146100fd578063484f81f51461011b578063715018a614610137575b600080fd5b6100b6610203565b6040516100c4929190610b5f565b60405180910390f35b6100e760048036038101906100e29190610bd6565b6103bc565b6040516100f49190610c1e565b60405180910390f35b6101056104f9565b6040516101129190610c48565b60405180910390f35b61013560048036038101906101309190610d98565b61059c565b005b61013f61061d565b005b610149610631565b6040516101569190610e22565b60405180910390f35b61017960048036038101906101749190610bd6565b61065a565b005b6101836106a0565b6040516101909190610c48565b60405180910390f35b6101b360048036038101906101ae9190610bd6565b6106a6565b6040516101c09190610e87565b60405180910390f35b6101d1610746565b6040516101de9190610f08565b60405180910390f35b61020160048036038101906101fc9190610f4f565b61076c565b005b606080600060035467ffffffffffffffff81111561022457610223610c6d565b5b6040519080825280602002602001820160405280156102525781602001602082028036833780820191505090505b509050600060035467ffffffffffffffff81111561027357610272610c6d565b5b6040519080825280602002602001820160405280156102a657816020015b60608152602001906001900390816102915790505b50905060005b6003548110156103af5760006001826102c59190610fab565b9050808483815181106102db576102da610fdf565b5b6020026020010181815250506002600082815260200190815260200160002080546103059061103d565b80601f01602080910402602001604051908101604052809291908181526020018280546103319061103d565b801561037e5780601f106103535761010080835404028352916020019161037e565b820191906000526020600020905b81548152906001019060200180831161036157829003601f168201915b505050505083838151811061039657610395610fdf565b5b60200260200101819052505080806001019150506102ac565b5081819350935050509091565b600080821180156103cf57506003548211155b61040e576040517f08c379a0000000000000000000000000000000000000000000000000000000008152600401610405906110ba565b60405180910390fd5b610416610631565b73ffffffffffffffffffffffffffffffffffffffff163373ffffffffffffffffffffffffffffffffffffffff160361045157600190506104f4565b6000600160009054906101000a900473ffffffffffffffffffffffffffffffffffffffff1673ffffffffffffffffffffffffffffffffffffffff166391f1075d336040518263ffffffff1660e01b81526004016104ae9190610e22565b602060405180830381865afa1580156104cb573d6000803e3d6000fd5b505050506040513d601f19601f820116820180604052508101906104ef91906110ef565b141590505b919050565b6000600160009054906101000a900473ffffffffffffffffffffffffffffffffffffffff1673ffffffffffffffffffffffffffffffffffffffff166391f1075d336040518263ffffffff1660e01b81526004016105569190610e22565b602060405180830381865afa158015610573573d6000803e3d6000fd5b505050506040513d601f19601f8201168201806040525081019061059791906110ef565b905090565b6105a46107f2565b600360008154809291906105b79061111c565b91905055508060026000600354815260200190815260200160002090816105de9190611306565b507fd592a48daf3b909b15c4610ff0f862e1923324fd0b33afda6924c9fb17f08639600354826040516106129291906113d8565b60405180910390a150565b6106256107f2565b61062f6000610879565b565b60008060009054906101000a900473ffffffffffffffffffffffffffffffffffffffff16905090565b7fc9741799a597e7f829344104324324429e7cbf17608dd6c0da07231b1f80ba4e3382610686846103bc565b60405161069593929190611408565b60405180910390a150565b60035481565b600260205280600052604060002060009150905080546106c59061103d565b80601f01602080910402602001604051908101604052809291908181526020018280546106f19061103d565b801561073e5780601f106107135761010080835404028352916020019161073e565b820191906000526020600020905b81548152906001019060200180831161072157829003601f168201915b505050505081565b600160009054906101000a900473ffffffffffffffffffffffffffffffffffffffff1681565b6107746107f2565b600073ffffffffffffffffffffffffffffffffffffffff168173ffffffffffffffffffffffffffffffffffffffff16036107e65760006040517f1e4fbdf70000000000000000000000000000000000000000000000000000000081526004016107dd9190610e22565b60405180910390fd5b6107ef81610879565b50565b6107fa61093d565b73ffffffffffffffffffffffffffffffffffffffff16610818610631565b73ffffffffffffffffffffffffffffffffffffffff16146108775761083b61093d565b6040517f118cdaa700000000000000000000000000000000000000000000000000000000815260040161086e9190610e22565b60405180910390fd5b565b60008060009054906101000a900473ffffffffffffffffffffffffffffffffffffffff169050816000806101000a81548173ffffffffffffffffffffffffffffffffffffffff021916908373ffffffffffffffffffffffffffffffffffffffff1602179055508173ffffffffffffffffffffffffffffffffffffffff168173ffffffffffffffffffffffffffffffffffffffff167f8be0079c531659141344cd1fd0a4f28419497f9722a3daafe3b4186f6b6457e060405160405180910390a35050565b600033905090565b600081519050919050565b600082825260208201905092915050565b6000819050602082019050919050565b6000819050919050565b61098481610971565b82525050565b6000610996838361097b565b60208301905092915050565b6000602082019050919050565b60006109ba82610945565b6109c48185610950565b93506109cf83610961565b8060005b83811015610a005781516109e7888261098a565b97506109f2836109a2565b9250506001810190506109d3565b5085935050505092915050565b600081519050919050565b600082825260208201905092915050565b6000819050602082019050919050565b600081519050919050565b600082825260208201905092915050565b60005b83811015610a73578082015181840152602081019050610a58565b60008484015250505050565b6000601f19601f8301169050919050565b6000610a9b82610a39565b610aa58185610a44565b9350610ab5818560208601610a55565b610abe81610a7f565b840191505092915050565b6000610ad58383610a90565b905092915050565b6000602082019050919050565b6000610af582610a0d565b610aff8185610a18565b935083602082028501610b1185610a29565b8060005b85811015610b4d5784840389528151610b2e8582610ac9565b9450610b3983610add565b925060208a01995050600181019050610b15565b50829750879550505050505092915050565b60006040820190508181036000830152610b7981856109af565b90508181036020830152610b8d8184610aea565b90509392505050565b6000604051905090565b600080fd5b600080fd5b610bb381610971565b8114610bbe57600080fd5b50565b600081359050610bd081610baa565b92915050565b600060208284031215610bec57610beb610ba0565b5b6000610bfa84828501610bc1565b91505092915050565b60008115159050919050565b610c1881610c03565b82525050565b6000602082019050610c336000830184610c0f565b92915050565b610c4281610971565b82525050565b6000602082019050610c5d6000830184610c39565b92915050565b600080fd5b600080fd5b7f4e487b7100000000000000000000000000000000000000000000000000000000600052604160045260246000fd5b610ca582610a7f565b810181811067ffffffffffffffff82111715610cc457610cc3610c6d565b5b80604052505050565b6000610cd7610b96565b9050610ce38282610c9c565b919050565b600067ffffffffffffffff821115610d0357610d02610c6d565b5b610d0c82610a7f565b9050602081019050919050565b82818337600083830152505050565b6000610d3b610d3684610ce8565b610ccd565b905082815260208101848484011115610d5757610d56610c68565b5b610d62848285610d19565b509392505050565b600082601f830112610d7f57610d7e610c63565b5b8135610d8f848260208601610d28565b91505092915050565b600060208284031215610dae57610dad610ba0565b5b600082013567ffffffffffffffff811115610dcc57610dcb610ba5565b5b610dd884828501610d6a565b91505092915050565b600073ffffffffffffffffffffffffffffffffffffffff82169050919050565b6000610e0c82610de1565b9050919050565b610e1c81610e01565b82525050565b6000602082019050610e376000830184610e13565b92915050565b600082825260208201905092915050565b6000610e5982610a39565b610e638185610e3d565b9350610e73818560208601610a55565b610e7c81610a7f565b840191505092915050565b60006020820190508181036000830152610ea18184610e4e565b905092915050565b6000819050919050565b6000610ece610ec9610ec484610de1565b610ea9565b610de1565b9050919050565b6000610ee082610eb3565b9050919050565b6000610ef282610ed5565b9050919050565b610f0281610ee7565b82525050565b6000602082019050610f1d6000830184610ef9565b92915050565b610f2c81610e01565b8114610f3757600080fd5b50565b600081359050610f4981610f23565b92915050565b600060208284031215610f6557610f64610ba0565b5b6000610f7384828501610f3a565b91505092915050565b7f4e487b7100000000000000000000000000000000000000000000000000000000600052601160045260246000fd5b6000610fb682610971565b9150610fc183610971565b9250828201905080821115610fd957610fd8610f7c565b5b92915050565b7f4e487b7100000000000000000000000000000000000000000000000000000000600052603260045260246000fd5b7f4e487b7100000000000000000000000000000000000000000000000000000000600052602260045260246000fd5b6000600282049050600182168061105557607f821691505b6020821081036110685761106761100e565b5b50919050565b7f496e76616c696420616d656e6974790000000000000000000000000000000000600082015250565b60006110a4600f83610e3d565b91506110af8261106e565b602082019050919050565b600060208201905081810360008301526110d381611097565b9050919050565b6000815190506110e981610baa565b92915050565b60006020828403121561110557611104610ba0565b5b6000611113848285016110da565b91505092915050565b600061112782610971565b91507fffffffffffffffffffffffffffffffffffffffffffffffffffffffffffffffff820361115957611158610f7c565b5b600182019050919050565b60008190508160005260206000209050919050565b60006020601f8301049050919050565b600082821b905092915050565b6000600883026111c67fffffffffffffffffffffffffffffffffffffffffffffffffffffffffffffffff82611189565b6111d08683611189565b95508019841693508086168417925050509392505050565b60006112036111fe6111f984610971565b610ea9565b610971565b9050919050565b6000819050919050565b61121d836111e8565b6112316112298261120a565b848454611196565b825550505050565b600090565b611246611239565b611251818484611214565b505050565b5b818110156112755761126a60008261123e565b600181019050611257565b5050565b601f8211156112ba5761128b81611164565b61129484611179565b810160208510156112a3578190505b6112b76112af85611179565b830182611256565b50505b505050565b600082821c905092915050565b60006112dd600019846008026112bf565b1980831691505092915050565b60006112f683836112cc565b9150826002028217905092915050565b61130f82610a39565b67ffffffffffffffff81111561132857611327610c6d565b5b611332825461103d565b61133d828285611279565b600060209050601f831160018114611370576000841561135e578287015190505b61136885826112ea565b8655506113d0565b601f19841661137e86611164565b60005b828110156113a657848901518255600182019150602085019450602081019050611381565b868310156113c357848901516113bf601f8916826112cc565b8355505b6001600288020188555050505b505050505050565b60006040820190506113ed6000830185610c39565b81810360208301526113ff8184610e4e565b90509392505050565b600060608201905061141d6000830186610e13565b61142a6020830185610c39565b6114376040830184610c0f565b94935050505056fea26469706673582212203ef11d23bf9302b4ffc569f85ec9c6e6820ebac2baff4356ed9ef8f21eed9f0d64736f6c634300081c0033",
  "linkReferences": {},
  "deployedLinkReferences": {}
}