{
  "_format": "hh-sol-artifact-1",
  "contractName": "FeePayment",
  "sourceName": "contracts/FeePayment.sol",
  "abi": [
    {
      "inputs": [
        {
          "internalType": "address",
          "name": "_identityNFTAddress",
          "type": "address"
        },
        {
          "internalType": "uint256",
          "name": "_initialFeeAmount",
          "type": "uint256"
        }
      ],
      "stateMutability": "nonpayable",
      "type": "constructor"
    },
    {
      "inputs": [
        {
          "internalType": "address",
          "name": "owner",
          "type": "address"
        }
      ],
      "name": "OwnableInvalidOwner",
      "type": "error"
    },
    {
      "inputs": [
        {
          "internalType": "address",
          "name": "account",
          "type": "address"
        }
      ],
      "name": "OwnableUnauthorizedAccount",
      "type": "error"
    },
    {
      "anonymous": false,
      "inputs": [
        {
          "indexed": false,
          "internalType": "uint256",
          "name": "newFeeAmount",
          "type": "uint256"
        }
      ],
      "name": "FeeAmountSet",
      "type": "event"
    },
    {
      "anonymous": false,
      "inputs": [
        {
          "indexed": false,
          "internalType": "uint256",
          "name": "paymentId",
          "type": "uint256"
        },
        {
          "indexed": false,
          "internalType": "address",
          "name": "payer",
          "type": "address"
        },
        {
          "indexed": false,
          "internalType": "uint256",
          "name": "amount",
          "type": "uint256"
        }
      ],
      "name": "FeePaid",
      "type": "event"
    },
    {
      "anonymous": false,
      "inputs": [
        {
          "indexed": false,
          "internalType": "uint256",
          "name": "newFeeCycle",
          "type": "uint256"
        },
        {
          "indexed": false,
          "internalType": "uint256",
          "name": "newFeeAmount",
          "type": "uint256"
        }
      ],
      "name": "FeesReset",
      "type": "event"
    },
    {
      "anonymous": false,
      "inputs": [
        {
          "indexed": true,
          "internalType": "address",
          "name": "previousOwner",
          "type": "address"
        },
        {
          "indexed": true,
          "internalType": "address",
          "name": "newOwner",
          "type": "address"
        }
      ],
      "name": "OwnershipTransferred",
      "type": "event"
    },
    {
      "inputs": [],
      "name": "feeAmount",
      "outputs": [
        {
          "internalType": "uint256",
          "name": "",
          "type": "uint256"
        }
      ],
      "stateMutability": "view",
      "type": "function"
    },
    {
      "inputs": [],
      "name": "feeCycle",
      "outputs": [
        {
          "internalType": "uint256",
          "name": "",
          "type": "uint256"
        }
      ],
      "stateMutability": "view",
      "type": "function"
    },
    {
      "inputs": [
        {
          "internalType": "address",
          "name": "",
          "type": "address"
        }
      ],
      "name": "feePaidCycle",
      "outputs": [
        {
          "internalType": "uint256",
          "name": "",
          "type": "uint256"
        }
      ],
      "stateMutability": "view",
      "type": "function"
    },
    {
      "inputs": [],
      "name": "identityNFT",
      "outputs": [
        {
          "internalType": "contract IIdentityNFT",
          "name": "",
          "type": "address"
        }
      ],
      "stateMutability": "view",
      "type": "function"
    },
    {
      "inputs": [
        {
          "internalType": "address",
          "name": "account",
          "type": "address"
        }
      ],
      "name": "isFeePaid",
      "outputs": [
        {
          "internalType": "bool",
          "name": "",
          "type": "bool"
        }
      ],
      "stateMutability": "view",
      "type": "function"
    },
    {
      "inputs": [],
      "name": "owner",
      "outputs": [
        {
          "internalType": "address",
          "name": "",
          "type": "address"
        }
      ],
      "stateMutability": "view",
      "type": "function"
    },
    {
      "inputs": [],
      "name": "payFee",
      "outputs": [],
      "stateMutability": "payable",
      "type": "function"
    },
    {
      "inputs": [],
      "name": "paymentCounter",
      "outputs": [
        {
          "internalType": "uint256",
          "name": "",
          "type": "uint256"
        }
      ],
      "stateMutability": "view",
      "type": "function"
    },
    {
      "inputs": [],
      "name": "renounceOwnership",
      "outputs": [],
      "stateMutability": "nonpayable",
      "type": "function"
    },
    {
      "inputs": [
        {
          "internalType": "uint256",
          "name": "_newFeeAmount",
          "type": "uint256"
        }
      ],
      "name": "resetFees",
      "outputs": [],
      "stateMutability": "nonpayable",
      "type": "function"
    },
    {
      "inputs": [
        {
          "internalType": "uint256",
          "name": "_feeAmount",
          "type": "uint256"
        }
      ],
      "name": "setFee",
      "outputs": [],
      "stateMutability": "nonpayable",
      "type": "function"
    },
    {
      "inputs": [
        {
          "internalType": "address",
          "name": "newOwner",
          "type": "address"
        }
      ],
      "name": "transferOwnership",
      "outputs": [],
      "stateMutability": "nonpayable",
      "type": "function"
    }
  ],
  "bytecode": "0x608060405234801561001057600080fd5b5060405161101a38038061101a833981810160405281019061003291906102a0565b33600073ffffffffffffffffffffffffffffffffffffffff168173ffffffffffffffffffffffffffffffffffffffff16036100a55760006040517f1e4fbdf700000000000000000000000000000000000000000000000000000000815260040161009c91906102ef565b60405180910390fd5b6100b48161014360201b60201c565b5081600160006101000a81548173ffffffffffffffffffffffffffffffffffffffff021916908373ffffffffffffffffffffffffffffffffffffffff1602179055508060028190555060016003819055507fcd46e5e377ac0f27e467bd50740483c17d8093e433478cf2caaacc7734becb5d816040516101349190610319565b60405180910390a15050610334565b60008060009054906101000a900473ffffffffffffffffffffffffffffffffffffffff169050816000806101000a81548173ffffffffffffffffffffffffffffffffffffffff021916908373ffffffffffffffffffffffffffffffffffffffff1602179055508173ffffffffffffffffffffffffffffffffffffffff168173ffffffffffffffffffffffffffffffffffffffff167f8be0079c531659141344cd1fd0a4f28419497f9722a3daafe3b4186f6b6457e060405160405180910390a35050565b600080fd5b600073ffffffffffffffffffffffffffffffffffffffff82169050919050565b60006102378261020c565b9050919050565b6102478161022c565b811461025257600080fd5b50565b6000815190506102648161023e565b92915050565b6000819050919050565b61027d8161026a565b811461028857600080fd5b50565b60008151905061029a81610274565b92915050565b600080604083850312156102b7576102b6610207565b5b60006102c585828601610255565b92505060206102d68582860161028b565b9150509250929050565b6102e98161022c565b82525050565b600060208201905061030460008301846102e0565b92915050565b6103138161026a565b82525050565b600060208201905061032e600083018461030a565b92915050565b610cd7806103436000396000f3fe6080604052600436106100a75760003560e01c806369fe0e2d1161006457806369fe0e2d146101af578063715018a6146101d857806376840b60146101ef5780638da5cb5b1461021a578063ea06abce14610245578063f2fde38b14610270576100a7565b806315d1e83f146100ac57806329610252146100d557806341f59620146100df578063635e29801461010a57806368cd4e391461014757806369e1540414610184575b600080fd5b3480156100b857600080fd5b506100d360048036038101906100ce9190610877565b610299565b005b6100dd6102fe565b005b3480156100eb57600080fd5b506100f4610540565b60405161010191906108b3565b60405180910390f35b34801561011657600080fd5b50610131600480360381019061012c919061092c565b610546565b60405161013e9190610974565b60405180910390f35b34801561015357600080fd5b5061016e6004803603810190610169919061092c565b610593565b60405161017b91906108b3565b60405180910390f35b34801561019057600080fd5b506101996105ab565b6040516101a691906108b3565b60405180910390f35b3480156101bb57600080fd5b506101d660048036038101906101d19190610877565b6105b1565b005b3480156101e457600080fd5b506101ed6105fa565b005b3480156101fb57600080fd5b5061020461060e565b60405161021191906108b3565b60405180910390f35b34801561022657600080fd5b5061022f610614565b60405161023c919061099e565b60405180910390f35b34801561025157600080fd5b5061025a61063d565b6040516102679190610a18565b60405180910390f35b34801561027c57600080fd5b506102976004803603810190610292919061092c565b610663565b005b6102a16106e9565b600360008154809291906102b490610a62565b9190505550806002819055507fefa68746ae3a49fcce35efdae33f3d4f86de6e04dd91e2ac6dfb26215e6488de600354826040516102f3929190610aaa565b60405180910390a150565b6000600160009054906101000a900473ffffffffffffffffffffffffffffffffffffffff1673ffffffffffffffffffffffffffffffffffffffff166391f1075d336040518263ffffffff1660e01b815260040161035b919061099e565b602060405180830381865afa158015610378573d6000803e3d6000fd5b505050506040513d601f19601f8201168201806040525081019061039c9190610ae8565b036103dc576040517f08c379a00000000000000000000000000000000000000000000000000000000081526004016103d390610b72565b60405180910390fd5b600354600460003373ffffffffffffffffffffffffffffffffffffffff1673ffffffffffffffffffffffffffffffffffffffff168152602001908152602001600020540361045f576040517f08c379a000000000000000000000000000000000000000000000000000000000815260040161045690610bde565b60405180910390fd5b60025434146104a3576040517f08c379a000000000000000000000000000000000000000000000000000000000815260040161049a90610c4a565b60405180910390fd5b600560008154809291906104b690610a62565b9190505550600354600460003373ffffffffffffffffffffffffffffffffffffffff1673ffffffffffffffffffffffffffffffffffffffff168152602001908152602001600020819055507f6fe296e805108cd514fea415210be4016149b01eeb08effbe130951b6a5f6c0b600554333460405161053693929190610c6a565b60405180910390a1565b60035481565b6000600354600460008473ffffffffffffffffffffffffffffffffffffffff1673ffffffffffffffffffffffffffffffffffffffff16815260200190815260200160002054149050919050565b60046020528060005260406000206000915090505481565b60025481565b6105b96106e9565b806002819055507fcd46e5e377ac0f27e467bd50740483c17d8093e433478cf2caaacc7734becb5d816040516105ef91906108b3565b60405180910390a150565b6106026106e9565b61060c6000610770565b565b60055481565b60008060009054906101000a900473ffffffffffffffffffffffffffffffffffffffff16905090565b600160009054906101000a900473ffffffffffffffffffffffffffffffffffffffff1681565b61066b6106e9565b600073ffffffffffffffffffffffffffffffffffffffff168173ffffffffffffffffffffffffffffffffffffffff16036106dd5760006040517f1e4fbdf70000000000000000000000000000000000000000000000000000000081526004016106d4919061099e565b60405180910390fd5b6106e681610770565b50565b6106f1610834565b73ffffffffffffffffffffffffffffffffffffffff1661070f610614565b73ffffffffffffffffffffffffffffffffffffffff161461076e57610732610834565b6040517f118cdaa7000000000000000000000000000000000000000000000000000000008152600401610765919061099e565b60405180910390fd5b565b60008060009054906101000a900473ffffffffffffffffffffffffffffffffffffffff169050816000806101000a81548173ffffffffffffffffffffffffffffffffffffffff021916908373ffffffffffffffffffffffffffffffffffffffff1602179055508173ffffffffffffffffffffffffffffffffffffffff168173ffffffffffffffffffffffffffffffffffffffff167f8be0079c531659141344cd1fd0a4f28419497f9722a3daafe3b4186f6b6457e060405160405180910390a35050565b600033905090565b600080fd5b6000819050919050565b61085481610841565b811461085f57600080fd5b50565b6000813590506108718161084b565b92915050565b60006020828403121561088d5761088c61083c565b5b600061089b84828501610862565b91505092915050565b6108ad81610841565b82525050565b60006020820190506108c860008301846108a4565b92915050565b600073ffffffffffffffffffffffffffffffffffffffff82169050919050565b60006108f9826108ce565b9050919050565b610909816108ee565b811461091457600080fd5b50565b60008135905061092681610900565b92915050565b6000602082840312156109425761094161083c565b5b600061095084828501610917565b91505092915050565b60008115159050919050565b61096e81610959565b82525050565b60006020820190506109896000830184610965565b92915050565b610998816108ee565b82525050565b60006020820190506109b3600083018461098f565b92915050565b6000819050919050565b60006109de6109d96109d4846108ce565b6109b9565b6108ce565b9050919050565b60006109f0826109c3565b9050919050565b6000610a02826109e5565b9050919050565b610a12816109f7565b82525050565b6000602082019050610a2d6000830184610a09565b92915050565b7f4e487b7100000000000000000000000000000000000000000000000000000000600052601160045260246000fd5b6000610a6d82610841565b91507fffffffffffffffffffffffffffffffffffffffffffffffffffffffffffffffff8203610a9f57610a9e610a33565b5b600182019050919050565b6000604082019050610abf60008301856108a4565b610acc60208301846108a4565b9392505050565b600081519050610ae28161084b565b92915050565b600060208284031215610afe57610afd61083c565b5b6000610b0c84828501610ad3565b91505092915050565b600082825260208201905092915050565b7f4e6f204964656e74697479204e465420666f756e640000000000000000000000600082015250565b6000610b5c601583610b15565b9150610b6782610b26565b602082019050919050565b60006020820190508181036000830152610b8b81610b4f565b9050919050565b7f46656520616c7265616479207061696420666f722074686973206379636c6500600082015250565b6000610bc8601f83610b15565b9150610bd382610b92565b602082019050919050565b60006020820190508181036000830152610bf781610bbb565b9050919050565b7f506c6561736520706179207468652065786163742066656520616d6f756e7400600082015250565b6000610c34601f83610b15565b9150610c3f82610bfe565b602082019050919050565b60006020820190508181036000830152610c6381610c27565b9050919050565b6000606082019050610c7f60008301866108a4565b610c8c602083018561098f565b610c9960408301846108a4565b94935050505056fea26469706673582212206de04465ead29987a9d8d1c5df7c21dd179caa7107a7399a850b1c579e3e2b3864736f6c634300081c0033",
  "linkReferences": {},
  "deployedLinkReferences": {}
}